{
  "contractName": "FreelanceMarketplace",
  "abi": [
    {
      "anonymous": false,
      "inputs": [
        {
          "indexed": true,
          "internalType": "uint256",
          "name": "serviceId",
          "type": "uint256"
        },
        {
          "indexed": true,
          "internalType": "address",
          "name": "client",
          "type": "address"
        },
        {
          "indexed": false,
          "internalType": "uint256",
          "name": "amount",
          "type": "uint256"
        }
      ],
      "name": "ClientRefunded",
      "type": "event"
    },
    {
      "anonymous": false,
      "inputs": [
        {
          "indexed": true,
          "internalType": "uint256",
          "name": "serviceId",
          "type": "uint256"
        },
        {
          "indexed": true,
          "internalType": "address",
          "name": "client",
          "type": "address"
        }
      ],
      "name": "FreelancerHired",
      "type": "event"
    },
    {
      "anonymous": false,
      "inputs": [
        {
          "indexed": true,
          "internalType": "uint256",
          "name": "serviceId",
          "type": "uint256"
        },
        {
          "indexed": true,
          "internalType": "address",
          "name": "freelancer",
          "type": "address"
        },
        {
          "indexed": false,
          "internalType": "uint256",
          "name": "amount",
          "type": "uint256"
        }
      ],
      "name": "PaymentReleased",
      "type": "event"
    },
    {
      "anonymous": false,
      "inputs": [
        {
          "indexed": true,
          "internalType": "uint256",
          "name": "serviceId",
          "type": "uint256"
        },
        {
          "indexed": true,
          "internalType": "address",
          "name": "freelancer",
          "type": "address"
        },
        {
          "indexed": false,
          "internalType": "string",
          "name": "title",
          "type": "string"
        },
        {
          "indexed": false,
          "internalType": "uint256",
          "name": "price",
          "type": "uint256"
        }
      ],
      "name": "ServiceOffered",
      "type": "event"
    },
    {
      "anonymous": false,
      "inputs": [
        {
          "indexed": true,
          "internalType": "uint256",
          "name": "serviceId",
          "type": "uint256"
        },
        {
          "indexed": true,
          "internalType": "address",
          "name": "client",
          "type": "address"
        },
        {
          "indexed": false,
          "internalType": "uint8",
          "name": "rating",
          "type": "uint8"
        }
      ],
      "name": "ServiceRated",
      "type": "event"
    },
    {
      "inputs": [
        {
          "internalType": "uint256",
          "name": "",
          "type": "uint256"
        }
      ],
      "name": "escrowedFunds",
      "outputs": [
        {
          "internalType": "uint256",
          "name": "",
          "type": "uint256"
        }
      ],
      "stateMutability": "view",
      "type": "function",
      "constant": true
    },
    {
      "inputs": [
        {
          "internalType": "address",
          "name": "",
          "type": "address"
        }
      ],
      "name": "freelancerRatings",
      "outputs": [
        {
          "internalType": "uint256",
          "name": "total",
          "type": "uint256"
        },
        {
          "internalType": "uint256",
          "name": "count",
          "type": "uint256"
        }
      ],
      "stateMutability": "view",
      "type": "function",
      "constant": true
    },
    {
      "inputs": [
        {
          "internalType": "uint256",
          "name": "",
          "type": "uint256"
        }
      ],
      "name": "services",
      "outputs": [
        {
          "internalType": "uint256",
          "name": "id",
          "type": "uint256"
        },
        {
          "internalType": "address",
          "name": "freelancer",
          "type": "address"
        },
        {
          "internalType": "address",
          "name": "client",
          "type": "address"
        },
        {
          "internalType": "string",
          "name": "title",
          "type": "string"
        },
        {
          "internalType": "uint256",
          "name": "price",
          "type": "uint256"
        },
        {
          "internalType": "bool",
          "name": "isActive",
          "type": "bool"
        },
        {
          "internalType": "bool",
          "name": "isPaid",
          "type": "bool"
        },
        {
          "internalType": "uint8",
          "name": "rating",
          "type": "uint8"
        },
        {
          "internalType": "uint256",
          "name": "deadline",
          "type": "uint256"
        }
      ],
      "stateMutability": "view",
      "type": "function",
      "constant": true
    },
    {
      "inputs": [
        {
          "internalType": "string",
          "name": "_title",
          "type": "string"
        },
        {
          "internalType": "uint256",
          "name": "_price",
          "type": "uint256"
        },
        {
          "internalType": "uint256",
          "name": "_deadline",
          "type": "uint256"
        }
      ],
      "name": "offerService",
      "outputs": [
        {
          "internalType": "uint256",
          "name": "",
          "type": "uint256"
        }
      ],
      "stateMutability": "nonpayable",
      "type": "function"
    },
    {
      "inputs": [
        {
          "internalType": "uint256",
          "name": "_serviceId",
          "type": "uint256"
        }
      ],
      "name": "hireFreelancer",
      "outputs": [],
      "stateMutability": "payable",
      "type": "function",
      "payable": true
    },
    {
      "inputs": [
        {
          "internalType": "uint256",
          "name": "_serviceId",
          "type": "uint256"
        }
      ],
      "name": "releasePayment",
      "outputs": [],
      "stateMutability": "nonpayable",
      "type": "function"
    },
    {
      "inputs": [
        {
          "internalType": "uint256",
          "name": "_serviceId",
          "type": "uint256"
        }
      ],
      "name": "refundClient",
      "outputs": [],
      "stateMutability": "nonpayable",
      "type": "function"
    },
    {
      "inputs": [
        {
          "internalType": "uint256",
          "name": "_serviceId",
          "type": "uint256"
        },
        {
          "internalType": "uint8",
          "name": "_rating",
          "type": "uint8"
        }
      ],
      "name": "rateService",
      "outputs": [],
      "stateMutability": "nonpayable",
      "type": "function"
    },
    {
      "inputs": [
        {
          "internalType": "address",
          "name": "_freelancer",
          "type": "address"
        }
      ],
      "name": "getAverageRating",
      "outputs": [
        {
          "internalType": "uint256",
          "name": "",
          "type": "uint256"
        }
      ],
      "stateMutability": "view",
      "type": "function",
      "constant": true
    },
    {
      "inputs": [
        {
          "internalType": "address",
          "name": "_freelancer",
          "type": "address"
        }
      ],
      "name": "getRatingCount",
      "outputs": [
        {
          "internalType": "uint256",
          "name": "",
          "type": "uint256"
        }
      ],
      "stateMutability": "view",
      "type": "function",
      "constant": true
    },
    {
      "inputs": [],
      "name": "getServiceCount",
      "outputs": [
        {
          "internalType": "uint256",
          "name": "",
          "type": "uint256"
        }
      ],
      "stateMutability": "view",
      "type": "function",
      "constant": true
    }
  ],
  "bytecode": "0x608060405234801561001057600080fd5b506001600055611398806100256000396000f3fe60806040526004361061009c5760003560e01c806388685cd91161006457806388685cd914610174578063b489e14714610194578063c22c4f43146101c1578063c8b67522146101f6578063ddd710da14610216578063ecdb12351461022957600080fd5b80631a47acab146100a15780631ff2cd1c146100c357806327db21e1146100f65780633672404e1461013f57806343eed51c14610154575b600080fd5b3480156100ad57600080fd5b506100c16100bc366004610f7a565b610262565b005b3480156100cf57600080fd5b506100e36100de366004610fc6565b6104b7565b6040519081526020015b60405180910390f35b34801561010257600080fd5b5061012a61011136600461108a565b6004602052600090815260409020805460019091015482565b604080519283526020830191909152016100ed565b34801561014b57600080fd5b506001546100e3565b34801561016057600080fd5b506100c161016f3660046110b3565b610723565b34801561018057600080fd5b506100c161018f3660046110b3565b6109af565b3480156101a057600080fd5b506100e36101af3660046110b3565b60036020526000908152604090205481565b3480156101cd57600080fd5b506101e16101dc3660046110b3565b610bc6565b6040516100ed99989796959493929190611112565b34801561020257600080fd5b506100e361021136600461108a565b610cad565b6100c16102243660046110b3565b610d06565b34801561023557600080fd5b506100e361024436600461108a565b6001600160a01b031660009081526004602052604090206001015490565b61026a610f21565b6000828152600260208190526040909120908101546001600160a01b031633146102db5760405162461bcd60e51b815260206004820181905260248201527f4f6e6c7920636c69656e742063616e207261746520746865207365727669636560448201526064015b60405180910390fd5b6005810154610100900460ff166103345760405162461bcd60e51b815260206004820181905260248201527f53657276696365207061796d656e74206e6f742072656c65617365642079657460448201526064016102d2565b60018260ff161015801561034c575060058260ff1611155b6103985760405162461bcd60e51b815260206004820152601e60248201527f526174696e67206d757374206265206265747765656e203120616e642035000060448201526064016102d2565b600581015462010000900460ff16156103eb5760405162461bcd60e51b815260206004820152601560248201527414d95c9d9a58d948185b1c9958591e481c985d1959605a1b60448201526064016102d2565b60058101805462ff000019166201000060ff85169081029190911790915560018201546001600160a01b03166000908152600460205260408120805490919061043590849061118c565b90915550506001818101546001600160a01b031660009081526004602052604081208201805490919061046990849061118c565b909155505060405160ff83168152339084907f4cfadb3896f7fc5de5413d3b196cab452ba6d0b2fe92b8a9b6c27a576eba8d379060200160405180910390a3506104b36001600055565b5050565b6000808451116105015760405162461bcd60e51b81526020600482015260156024820152745469746c652063616e6e6f7420626520656d70747960581b60448201526064016102d2565b600083116105515760405162461bcd60e51b815260206004820152601c60248201527f5072696365206d7573742062652067726561746572207468616e20300000000060448201526064016102d2565b600082116105a15760405162461bcd60e51b815260206004820152601e60248201527f446561646c696e65206d75737420626520696e2074686520667574757265000060448201526064016102d2565b60015460006105b384620151806111a5565b6105bd904261118c565b60408051610120810182528481523360208083019182526000838501818152606085018d8152608086018d9052600160a0870181905260c0870184905260e0870184905261010087018990528a84526002948590529690922085518155935195840180546001600160a01b039788166001600160a01b031991821617909155905192840180549390961692169190911790935591519293509160038201906106659082611245565b506080820151600482015560a082015160058201805460c085015160e086015161ffff1990921693151561ff0019169390931761010093151584021762ff000019166201000060ff9092169190910217905590910151600690910155600180549060006106d183611305565b9190505550336001600160a01b0316827f11c5fff3b5aeb9b7782b5c4b7b3260a1272d2bcd72f9c401e68d23465a260f8a888860405161071292919061131e565b60405180910390a350949350505050565b61072b610f21565b6000818152600260208190526040909120908101546001600160a01b031633146107975760405162461bcd60e51b815260206004820152601e60248201527f4f6e6c7920636c69656e742063616e207265717565737420726566756e64000060448201526064016102d2565b6005810154610100900460ff16156107ec5760405162461bcd60e51b815260206004820152601860248201527714185e5b595b9d08185b1c9958591e481c995b19585cd95960421b60448201526064016102d2565b60008281526003602052604090205461083c5760405162461bcd60e51b81526020600482015260126024820152714e6f2066756e647320696e20657363726f7760701b60448201526064016102d2565b428160060154106108a35760405162461bcd60e51b815260206004820152602b60248201527f526566756e647320776f6e277420626520697373756564206265666f7265207460448201526a686520646561646c696e6560a81b60648201526084016102d2565b60008281526003602052604080822080549083905560058401805460ff19169055600284015491519092916001600160a01b03169083908381818185875af1925050503d8060008114610912576040519150601f19603f3d011682016040523d82523d6000602084013e610917565b606091505b50509050806109585760405162461bcd60e51b815260206004820152600d60248201526c1499599d5b990819985a5b1959609a1b60448201526064016102d2565b60028301546040518381526001600160a01b039091169085907f710864ae79ae7195dbcaa0f79eef4a8f5b490696c2d588a27f4d69ce60ac01fc906020015b60405180910390a35050506109ac6001600055565b50565b6109b7610f21565b6000818152600260208190526040909120908101546001600160a01b03163314610a235760405162461bcd60e51b815260206004820152601f60248201527f4f6e6c7920636c69656e742063616e2072656c65617365207061796d656e740060448201526064016102d2565b6005810154610100900460ff1615610a785760405162461bcd60e51b815260206004820152601860248201527714185e5b595b9d08185b1c9958591e481c995b19585cd95960421b60448201526064016102d2565b600082815260036020526040902054610ac85760405162461bcd60e51b81526020600482015260126024820152714e6f2066756e647320696e20657363726f7760701b60448201526064016102d2565b60008281526003602052604080822080549083905560058401805461ffff1916610100179055600184015491519092916001600160a01b03169083908381818185875af1925050503d8060008114610b3c576040519150601f19603f3d011682016040523d82523d6000602084013e610b41565b606091505b5050905080610b835760405162461bcd60e51b815260206004820152600e60248201526d14185e5b595b9d0819985a5b195960921b60448201526064016102d2565b60018301546040518381526001600160a01b039091169085907f21d71db5be59bb9fa133895586b7404307dd33fb93b16db09dc6f1d9d7d231b090602001610997565b6002602081905260009182526040909120805460018201549282015460038301805492946001600160a01b0390811694921692610c02906111bc565b80601f0160208091040260200160405190810160405280929190818152602001828054610c2e906111bc565b8015610c7b5780601f10610c5057610100808354040283529160200191610c7b565b820191906000526020600020905b815481529060010190602001808311610c5e57829003601f168201915b50505050600483015460058401546006909401549293909260ff80831693506101008304811692620100009004169089565b6001600160a01b038116600090815260046020908152604080832081518083019092528054825260010154918101829052908203610cee5750600092915050565b60208101518151610cff9190611340565b9392505050565b610d0e610f21565b600081815260026020526040902060018101546001600160a01b0316610d6f5760405162461bcd60e51b815260206004820152601660248201527514d95c9d9a58d948191bd95cc81b9bdd08195e1a5cdd60521b60448201526064016102d2565b60018101546001600160a01b03163303610dd55760405162461bcd60e51b815260206004820152602160248201527f467265656c616e6365722063616e6e6f742068697265207468656d73656c76656044820152607360f81b60648201526084016102d2565b600581015460ff16610e215760405162461bcd60e51b815260206004820152601560248201527453657276696365206973206e6f742061637469766560581b60448201526064016102d2565b60028101546001600160a01b031615610e745760405162461bcd60e51b815260206004820152601560248201527414d95c9d9a58d948185b1c9958591e481a1a5c9959605a1b60448201526064016102d2565b80600401543414610ec75760405162461bcd60e51b815260206004820181905260248201527f5061796d656e74206d757374206d61746368207365727669636520707269636560448201526064016102d2565b6002810180546001600160a01b031916339081179091556000838152600360205260408082203490555184917f275ab44b0c246a31e80d4be1133500786fb735dd528a1c8dbd0245896c6b142191a3506109ac6001600055565b600260005403610f735760405162461bcd60e51b815260206004820152601f60248201527f5265656e7472616e637947756172643a207265656e7472616e742063616c6c0060448201526064016102d2565b6002600055565b60008060408385031215610f8d57600080fd5b82359150602083013560ff81168114610fa557600080fd5b809150509250929050565b634e487b7160e01b600052604160045260246000fd5b600080600060608486031215610fdb57600080fd5b833567ffffffffffffffff80821115610ff357600080fd5b818601915086601f83011261100757600080fd5b81358181111561101957611019610fb0565b604051601f8201601f19908116603f0116810190838211818310171561104157611041610fb0565b8160405282815289602084870101111561105a57600080fd5b82602086016020830137600060208483010152809750505050505060208401359150604084013590509250925092565b60006020828403121561109c57600080fd5b81356001600160a01b0381168114610cff57600080fd5b6000602082840312156110c557600080fd5b5035919050565b6000815180845260005b818110156110f2576020818501810151868301820152016110d6565b506000602082860101526020601f19601f83011685010191505092915050565b8981526001600160a01b03898116602083015288166040820152610120606082018190526000906111458382018a6110cc565b6080840198909852505093151560a085015291151560c084015260ff1660e083015261010090910152949350505050565b634e487b7160e01b600052601160045260246000fd5b8082018082111561119f5761119f611176565b92915050565b808202811582820484141761119f5761119f611176565b600181811c908216806111d057607f821691505b6020821081036111f057634e487b7160e01b600052602260045260246000fd5b50919050565b601f82111561124057600081815260208120601f850160051c8101602086101561121d5750805b601f850160051c820191505b8181101561123c57828155600101611229565b5050505b505050565b815167ffffffffffffffff81111561125f5761125f610fb0565b6112738161126d84546111bc565b846111f6565b602080601f8311600181146112a857600084156112905750858301515b600019600386901b1c1916600185901b17855561123c565b600085815260208120601f198616915b828110156112d7578886015182559484019460019091019084016112b8565b50858210156112f55787850151600019600388901b60f8161c191681555b5050505050600190811b01905550565b60006001820161131757611317611176565b5060010190565b60408152600061133160408301856110cc565b90508260208301529392505050565b60008261135d57634e487b7160e01b600052601260045260246000fd5b50049056fea2646970667358221220adfd864fd7681282926cba679d0a4c737aec5b71d4a12661e97cfb82f13b6ab364736f6c63430008110033",
  "immutableReferences": {},
  "source": "// SPDX-License-Identifier: MIT\r\npragma solidity ^0.8.0;\r\n\r\nimport \"@openzeppelin/contracts/security/ReentrancyGuard.sol\";\r\n\r\ncontract FreelanceMarketplace is ReentrancyGuard {\r\n    struct Service {\r\n        uint256 id;\r\n        address freelancer;\r\n        address client;\r\n        string title;\r\n        uint256 price;\r\n        bool isActive;\r\n        bool isPaid;\r\n        uint8 rating; \r\n        uint256 deadline;\r\n    }\r\n\r\n    struct FreelancerRating {\r\n        uint256 total; \r\n        uint256 count; \r\n    }\r\n\r\n    uint256 private serviceCounter;\r\n    \r\n    mapping(uint256 => Service) public services;\r\n    \r\n    mapping(uint256 => uint256) public escrowedFunds;\r\n\r\n    mapping(address => FreelancerRating) public freelancerRatings;\r\n    \r\n    event ServiceOffered(uint256 indexed serviceId, address indexed freelancer, string title, uint256 price);\r\n    event FreelancerHired(uint256 indexed serviceId, address indexed client);\r\n    event PaymentReleased(uint256 indexed serviceId, address indexed freelancer, uint256 amount);\r\n    event ClientRefunded(uint256 indexed serviceId, address indexed client, uint256 amount);\r\n    event ServiceRated(uint256 indexed serviceId, address indexed client, uint8 rating);\r\n    \r\n    /**\r\n     * @dev Allows freelancers to list their services\r\n     * @param _title Short service title\r\n     * @param _price Service cost in wei\r\n     * @param _deadline Deadline in days from creation\r\n     */\r\n    function offerService(string memory _title, uint256 _price, uint256 _deadline) external returns (uint256) {\r\n        require(bytes(_title).length > 0, \"Title cannot be empty\");\r\n        require(_price > 0, \"Price must be greater than 0\");\r\n        require(_deadline > 0, \"Deadline must be in the future\");\r\n        \r\n        uint256 serviceId = serviceCounter;\r\n        uint256 deadlineTimestamp = block.timestamp + (_deadline * 1 days);\r\n        \r\n        services[serviceId] = Service({\r\n            id: serviceId,\r\n            freelancer: msg.sender,\r\n            client: address(0),\r\n            title: _title,\r\n            price: _price,\r\n            isActive: true,\r\n            isPaid: false,\r\n            rating: 0,\r\n            deadline: deadlineTimestamp\r\n        });\r\n        \r\n        serviceCounter++;\r\n        \r\n        emit ServiceOffered(serviceId, msg.sender, _title, _price);\r\n        return serviceId;\r\n    }\r\n    \r\n    /**\r\n     * @dev Allows clients to hire a freelancer and escrow payment\r\n     * @param _serviceId ID of the service to hire\r\n     */\r\n    function hireFreelancer(uint256 _serviceId) external payable nonReentrant {\r\n        Service storage service = services[_serviceId];\r\n        \r\n        require(service.freelancer != address(0), \"Service does not exist\");\r\n        require(msg.sender != service.freelancer, \"Freelancer cannot hire themselves\");\r\n        require(service.isActive, \"Service is not active\");\r\n        require(service.client == address(0), \"Service already hired\");\r\n        require(msg.value == service.price, \"Payment must match service price\");\r\n        \r\n        service.client = msg.sender;\r\n        escrowedFunds[_serviceId] = msg.value;\r\n        \r\n        emit FreelancerHired(_serviceId, msg.sender);\r\n    }\r\n    \r\n    /**\r\n     * @dev Allows client to release payment to freelancer after work completion\r\n     * @param _serviceId ID of the service\r\n     */\r\n    function releasePayment(uint256 _serviceId) external nonReentrant {\r\n        Service storage service = services[_serviceId];\r\n        \r\n        require(service.client == msg.sender, \"Only client can release payment\");\r\n        require(!service.isPaid, \"Payment already released\");\r\n        require(escrowedFunds[_serviceId] > 0, \"No funds in escrow\");    \r\n        uint256 amount = escrowedFunds[_serviceId];\r\n       \r\n        escrowedFunds[_serviceId] = 0;\r\n        service.isPaid = true;\r\n        service.isActive = false;\r\n        \r\n        (bool success, ) = payable(service.freelancer).call{value: amount}(\"\");\r\n        require(success, \"Payment failed\");\r\n        \r\n        emit PaymentReleased(_serviceId, service.freelancer, amount);\r\n    }\r\n    /**\r\n     * @dev Allows client to release payment to freelancer after work completion\r\n     * @param _serviceId ID of the service\r\n     */\r\n    function refundClient(uint256 _serviceId) external nonReentrant() {\r\n        Service storage service = services[_serviceId];\r\n\r\n        require(service.client == msg.sender, \"Only client can request refund\");\r\n        require(!service.isPaid, \"Payment already released\");\r\n        require(escrowedFunds[_serviceId] > 0, \"No funds in escrow\");\r\n        require(service.deadline < block.timestamp, \"Refunds won't be issued before the deadline\");\r\n\r\n        uint256 amount = escrowedFunds[_serviceId];\r\n        \r\n        escrowedFunds[_serviceId] = 0;\r\n        service.isActive = false;\r\n        \r\n        (bool success, ) = payable(service.client).call{value: amount}(\"\");\r\n        require(success, \"Refund failed\");\r\n        \r\n        emit ClientRefunded(_serviceId, service.client, amount);\r\n    }\r\n\r\n    /**\r\n     * @dev Allows the client to rate a service (only if payment was released).\r\n     * @param _serviceId ID of the service to rate.\r\n     * @param _rating Service rating value (must be between 1 and 5).\r\n     */\r\n    function rateService(uint256 _serviceId, uint8 _rating) external nonReentrant {\r\n        Service storage service = services[_serviceId];\r\n\r\n        require(service.client == msg.sender, \"Only client can rate the service\");\r\n        require(service.isPaid, \"Service payment not released yet\");\r\n        require(_rating >= 1 && _rating <= 5, \"Rating must be between 1 and 5\");\r\n        require(service.rating == 0, \"Service already rated\");\r\n        \r\n        service.rating = _rating;\r\n        \r\n        freelancerRatings[service.freelancer].total += _rating;\r\n        freelancerRatings[service.freelancer].count += 1;\r\n        \r\n        emit ServiceRated(_serviceId, msg.sender, _rating);\r\n    }\r\n\r\n    /**\r\n     * @dev Returns the average rating of a freelancer.\r\n     * @param _freelancer Address of the freelancer.\r\n     * @return The average rating as an integer (0 if no ratings present).\r\n     */\r\n    function getAverageRating(address _freelancer) external view returns (uint256) {\r\n        FreelancerRating memory rating = freelancerRatings[_freelancer];\r\n        if (rating.count == 0) {\r\n            return 0;\r\n        }\r\n        return rating.total / rating.count;\r\n    }\r\n\r\n    /**\r\n     * @dev Returns the number of ratings received by a certain freelancer.\r\n     * @param _freelancer Address of the freelancer.\r\n     * @return The number of ratings as an integer (0 if no ratings present).\r\n     */\r\n    function getRatingCount(address _freelancer) external view returns (uint256) {\r\n        return freelancerRatings[_freelancer].count;\r\n    }\r\n\r\n    /**\r\n     * @dev Returns all listed services\r\n     */\r\n    function getServiceCount() external view returns (uint256) {\r\n        return serviceCounter;\r\n    }\r\n}\r\n",
  "sourcePath": "C:\\Users\\magic\\OneDrive\\Desktop\\SmartContractors-Freelance-Marketplace\\contracts\\FreelanceMarketplace.sol",
  "compiler": {
    "name": "solc",
    "version": "0.8.17+commit.8df45f5f.Emscripten.clang"
  },
  "schemaVersion": "3.4.16",
  "updatedAt": "2025-04-24T13:59:53.322Z",
  "networkType": "ethereum",
  "devdoc": {
    "kind": "dev",
    "methods": {
      "getAverageRating(address)": {
        "details": "Returns the average rating of a freelancer.",
        "params": {
          "_freelancer": "Address of the freelancer."
        },
        "returns": {
          "_0": "The average rating as an integer (0 if no ratings present)."
        }
      },
      "getRatingCount(address)": {
        "details": "Returns the number of ratings received by a certain freelancer.",
        "params": {
          "_freelancer": "Address of the freelancer."
        },
        "returns": {
          "_0": "The number of ratings as an integer (0 if no ratings present)."
        }
      },
      "getServiceCount()": {
        "details": "Returns all listed services"
      },
      "hireFreelancer(uint256)": {
        "details": "Allows clients to hire a freelancer and escrow payment",
        "params": {
          "_serviceId": "ID of the service to hire"
        }
      },
      "offerService(string,uint256,uint256)": {
        "details": "Allows freelancers to list their services",
        "params": {
          "_deadline": "Deadline in days from creation",
          "_price": "Service cost in wei",
          "_title": "Short service title"
        }
      },
      "rateService(uint256,uint8)": {
        "details": "Allows the client to rate a service (only if payment was released).",
        "params": {
          "_rating": "Service rating value (must be between 1 and 5).",
          "_serviceId": "ID of the service to rate."
        }
      },
      "refundClient(uint256)": {
        "details": "Allows client to release payment to freelancer after work completion",
        "params": {
          "_serviceId": "ID of the service"
        }
      },
      "releasePayment(uint256)": {
        "details": "Allows client to release payment to freelancer after work completion",
        "params": {
          "_serviceId": "ID of the service"
        }
      }
    },
    "version": 1
  },
  "userdoc": {
    "kind": "user",
    "methods": {},
    "version": 1
  }
}