{
  "contractName": "FreelanceMarketplace",
  "abi": [
    {
      "anonymous": false,
      "inputs": [
        {
          "indexed": true,
          "internalType": "uint256",
          "name": "serviceId",
          "type": "uint256"
        },
        {
          "indexed": true,
          "internalType": "address",
          "name": "client",
          "type": "address"
        },
        {
          "indexed": false,
          "internalType": "uint256",
          "name": "amount",
          "type": "uint256"
        }
      ],
      "name": "ClientRefunded",
      "type": "event"
    },
    {
      "anonymous": false,
      "inputs": [
        {
          "indexed": true,
          "internalType": "uint256",
          "name": "serviceId",
          "type": "uint256"
        },
        {
          "indexed": true,
          "internalType": "address",
          "name": "client",
          "type": "address"
        }
      ],
      "name": "FreelancerHired",
      "type": "event"
    },
    {
      "anonymous": false,
      "inputs": [
        {
          "indexed": true,
          "internalType": "uint256",
          "name": "serviceId",
          "type": "uint256"
        },
        {
          "indexed": true,
          "internalType": "address",
          "name": "freelancer",
          "type": "address"
        },
        {
          "indexed": false,
          "internalType": "uint256",
          "name": "amount",
          "type": "uint256"
        }
      ],
      "name": "PaymentReleased",
      "type": "event"
    },
    {
      "anonymous": false,
      "inputs": [
        {
          "indexed": true,
          "internalType": "uint256",
          "name": "serviceId",
          "type": "uint256"
        },
        {
          "indexed": true,
          "internalType": "address",
          "name": "freelancer",
          "type": "address"
        },
        {
          "indexed": false,
          "internalType": "string",
          "name": "title",
          "type": "string"
        },
        {
          "indexed": false,
          "internalType": "string",
          "name": "description",
          "type": "string"
        },
        {
          "indexed": false,
          "internalType": "uint256",
          "name": "price",
          "type": "uint256"
        },
        {
          "indexed": false,
          "internalType": "uint256",
          "name": "deadline",
          "type": "uint256"
        }
      ],
      "name": "ServiceOffered",
      "type": "event"
    },
    {
      "anonymous": false,
      "inputs": [
        {
          "indexed": true,
          "internalType": "uint256",
          "name": "serviceId",
          "type": "uint256"
        },
        {
          "indexed": true,
          "internalType": "address",
          "name": "client",
          "type": "address"
        },
        {
          "indexed": false,
          "internalType": "uint8",
          "name": "rating",
          "type": "uint8"
        }
      ],
      "name": "ServiceRated",
      "type": "event"
    },
    {
      "inputs": [
        {
          "internalType": "uint256",
          "name": "",
          "type": "uint256"
        }
      ],
      "name": "escrowedFunds",
      "outputs": [
        {
          "internalType": "uint256",
          "name": "",
          "type": "uint256"
        }
      ],
      "stateMutability": "view",
      "type": "function"
    },
    {
      "inputs": [
        {
          "internalType": "address",
          "name": "",
          "type": "address"
        }
      ],
      "name": "freelancerRatings",
      "outputs": [
        {
          "internalType": "uint256",
          "name": "total",
          "type": "uint256"
        },
        {
          "internalType": "uint256",
          "name": "count",
          "type": "uint256"
        }
      ],
      "stateMutability": "view",
      "type": "function"
    },
    {
      "inputs": [
        {
          "internalType": "uint256",
          "name": "",
          "type": "uint256"
        }
      ],
      "name": "services",
      "outputs": [
        {
          "internalType": "uint256",
          "name": "id",
          "type": "uint256"
        },
        {
          "internalType": "address",
          "name": "freelancer",
          "type": "address"
        },
        {
          "internalType": "address",
          "name": "client",
          "type": "address"
        },
        {
          "internalType": "string",
          "name": "title",
          "type": "string"
        },
        {
          "internalType": "string",
          "name": "description",
          "type": "string"
        },
        {
          "internalType": "uint256",
          "name": "price",
          "type": "uint256"
        },
        {
          "internalType": "bool",
          "name": "isActive",
          "type": "bool"
        },
        {
          "internalType": "bool",
          "name": "isPaid",
          "type": "bool"
        },
        {
          "internalType": "uint8",
          "name": "rating",
          "type": "uint8"
        },
        {
          "internalType": "uint256",
          "name": "deadline",
          "type": "uint256"
        }
      ],
      "stateMutability": "view",
      "type": "function"
    },
    {
      "inputs": [
        {
          "internalType": "string",
          "name": "_title",
          "type": "string"
        },
        {
          "internalType": "string",
          "name": "_description",
          "type": "string"
        },
        {
          "internalType": "uint256",
          "name": "_price",
          "type": "uint256"
        },
        {
          "internalType": "uint256",
          "name": "_deadline",
          "type": "uint256"
        }
      ],
      "name": "offerService",
      "outputs": [
        {
          "internalType": "uint256",
          "name": "",
          "type": "uint256"
        }
      ],
      "stateMutability": "nonpayable",
      "type": "function"
    },
    {
      "inputs": [
        {
          "internalType": "uint256",
          "name": "_serviceId",
          "type": "uint256"
        }
      ],
      "name": "hireFreelancer",
      "outputs": [],
      "stateMutability": "payable",
      "type": "function"
    },
    {
      "inputs": [
        {
          "internalType": "uint256",
          "name": "_serviceId",
          "type": "uint256"
        }
      ],
      "name": "releasePayment",
      "outputs": [],
      "stateMutability": "nonpayable",
      "type": "function"
    },
    {
      "inputs": [
        {
          "internalType": "uint256",
          "name": "_serviceId",
          "type": "uint256"
        }
      ],
      "name": "refundClient",
      "outputs": [],
      "stateMutability": "nonpayable",
      "type": "function"
    },
    {
      "inputs": [
        {
          "internalType": "uint256",
          "name": "_serviceId",
          "type": "uint256"
        },
        {
          "internalType": "uint8",
          "name": "_rating",
          "type": "uint8"
        }
      ],
      "name": "rateService",
      "outputs": [],
      "stateMutability": "nonpayable",
      "type": "function"
    },
    {
      "inputs": [
        {
          "internalType": "address",
          "name": "_freelancer",
          "type": "address"
        }
      ],
      "name": "getAverageRating",
      "outputs": [
        {
          "internalType": "uint256",
          "name": "",
          "type": "uint256"
        }
      ],
      "stateMutability": "view",
      "type": "function"
    },
    {
      "inputs": [
        {
          "internalType": "address",
          "name": "_freelancer",
          "type": "address"
        }
      ],
      "name": "getRatingCount",
      "outputs": [
        {
          "internalType": "uint256",
          "name": "",
          "type": "uint256"
        }
      ],
      "stateMutability": "view",
      "type": "function"
    },
    {
      "inputs": [],
      "name": "getServiceCount",
      "outputs": [
        {
          "internalType": "uint256",
          "name": "",
          "type": "uint256"
        }
      ],
      "stateMutability": "view",
      "type": "function"
    }
  ],
  "bytecode": "0x608060405234801561001057600080fd5b5060016000556114a7806100256000396000f3fe60806040526004361061009c5760003560e01c806388685cd91161006457806388685cd914610174578063b489e14714610194578063c22c4f43146101c1578063c8b67522146101f7578063ddd710da14610217578063ecdb12351461022a57600080fd5b80630ee26478146100a15780631a47acab146100d457806327db21e1146100f65780633672404e1461013f57806343eed51c14610154575b600080fd5b3480156100ad57600080fd5b506100c16100bc3660046110c2565b610263565b6040519081526020015b60405180910390f35b3480156100e057600080fd5b506100f46100ef366004611136565b610550565b005b34801561010257600080fd5b5061012a61011136600461116c565b6004602052600090815260409020805460019091015482565b604080519283526020830191909152016100cb565b34801561014b57600080fd5b506001546100c1565b34801561016057600080fd5b506100f461016f366004611195565b6107a0565b34801561018057600080fd5b506100f461018f366004611195565b610a2c565b3480156101a057600080fd5b506100c16101af366004611195565b60036020526000908152604090205481565b3480156101cd57600080fd5b506101e16101dc366004611195565b610c43565b6040516100cb9a999897969594939291906111f4565b34801561020357600080fd5b506100c161021236600461116c565b610db8565b6100f4610225366004611195565b610e11565b34801561023657600080fd5b506100c161024536600461116c565b6001600160a01b031660009081526004602052604090206001015490565b6000808551116102b25760405162461bcd60e51b81526020600482015260156024820152745469746c652063616e6e6f7420626520656d70747960581b60448201526064015b60405180910390fd5b60008451116103035760405162461bcd60e51b815260206004820152601b60248201527f4465736372697074696f6e2063616e6e6f7420626520656d707479000000000060448201526064016102a9565b600083116103535760405162461bcd60e51b815260206004820152601c60248201527f5072696365206d7573742062652067726561746572207468616e20300000000060448201526064016102a9565b600082116103a35760405162461bcd60e51b815260206004820152601e60248201527f446561646c696e65206d75737420626520696e2074686520667574757265000060448201526064016102a9565b60015460006103b58462015180611284565b6103bf90426112a1565b60408051610140810182528481523360208083019182526000838501818152606085018e8152608086018e905260a086018d9052600160c0870181905260e08701849052610100870184905261012087018990528a84526002948590529690922085518155935195840180546001600160a01b039788166001600160a01b0319918216179091559051928401805493909616921691909117909355915192935091600382019061046f908261133d565b5060808201516004820190610484908261133d565b5060a0820151600582015560c082015160068201805460e08501516101008087015161ffff1990931694151561ff001916949094179015159093029290921762ff000019166201000060ff9093169290920291909117905561012090910151600790910155600180549060006104f9836113fd565b9190505550336001600160a01b0316827f0ded474cb11b41ae30c1c580757c4db03db9f593d09f0d4d2e93e1c6e29dd4178989898960405161053e9493929190611416565b60405180910390a35095945050505050565b610558610fc6565b6000828152600260208190526040909120908101546001600160a01b031633146105c45760405162461bcd60e51b815260206004820181905260248201527f4f6e6c7920636c69656e742063616e207261746520746865207365727669636560448201526064016102a9565b6006810154610100900460ff1661061d5760405162461bcd60e51b815260206004820181905260248201527f53657276696365207061796d656e74206e6f742072656c65617365642079657460448201526064016102a9565b60018260ff1610158015610635575060058260ff1611155b6106815760405162461bcd60e51b815260206004820152601e60248201527f526174696e67206d757374206265206265747765656e203120616e642035000060448201526064016102a9565b600681015462010000900460ff16156106d45760405162461bcd60e51b815260206004820152601560248201527414d95c9d9a58d948185b1c9958591e481c985d1959605a1b60448201526064016102a9565b60068101805462ff000019166201000060ff85169081029190911790915560018201546001600160a01b03166000908152600460205260408120805490919061071e9084906112a1565b90915550506001818101546001600160a01b03166000908152600460205260408120820180549091906107529084906112a1565b909155505060405160ff83168152339084907f4cfadb3896f7fc5de5413d3b196cab452ba6d0b2fe92b8a9b6c27a576eba8d379060200160405180910390a35061079c6001600055565b5050565b6107a8610fc6565b6000818152600260208190526040909120908101546001600160a01b031633146108145760405162461bcd60e51b815260206004820152601e60248201527f4f6e6c7920636c69656e742063616e207265717565737420726566756e64000060448201526064016102a9565b6006810154610100900460ff16156108695760405162461bcd60e51b815260206004820152601860248201527714185e5b595b9d08185b1c9958591e481c995b19585cd95960421b60448201526064016102a9565b6000828152600360205260409020546108b95760405162461bcd60e51b81526020600482015260126024820152714e6f2066756e647320696e20657363726f7760701b60448201526064016102a9565b428160070154106109205760405162461bcd60e51b815260206004820152602b60248201527f526566756e647320776f6e277420626520697373756564206265666f7265207460448201526a686520646561646c696e6560a81b60648201526084016102a9565b60008281526003602052604080822080549083905560068401805460ff19169055600284015491519092916001600160a01b03169083908381818185875af1925050503d806000811461098f576040519150601f19603f3d011682016040523d82523d6000602084013e610994565b606091505b50509050806109d55760405162461bcd60e51b815260206004820152600d60248201526c1499599d5b990819985a5b1959609a1b60448201526064016102a9565b60028301546040518381526001600160a01b039091169085907f710864ae79ae7195dbcaa0f79eef4a8f5b490696c2d588a27f4d69ce60ac01fc906020015b60405180910390a3505050610a296001600055565b50565b610a34610fc6565b6000818152600260208190526040909120908101546001600160a01b03163314610aa05760405162461bcd60e51b815260206004820152601f60248201527f4f6e6c7920636c69656e742063616e2072656c65617365207061796d656e740060448201526064016102a9565b6006810154610100900460ff1615610af55760405162461bcd60e51b815260206004820152601860248201527714185e5b595b9d08185b1c9958591e481c995b19585cd95960421b60448201526064016102a9565b600082815260036020526040902054610b455760405162461bcd60e51b81526020600482015260126024820152714e6f2066756e647320696e20657363726f7760701b60448201526064016102a9565b60008281526003602052604080822080549083905560068401805461ffff1916610100179055600184015491519092916001600160a01b03169083908381818185875af1925050503d8060008114610bb9576040519150601f19603f3d011682016040523d82523d6000602084013e610bbe565b606091505b5050905080610c005760405162461bcd60e51b815260206004820152600e60248201526d14185e5b595b9d0819985a5b195960921b60448201526064016102a9565b60018301546040518381526001600160a01b039091169085907f21d71db5be59bb9fa133895586b7404307dd33fb93b16db09dc6f1d9d7d231b090602001610a14565b6002602081905260009182526040909120805460018201549282015460038301805492946001600160a01b0390811694921692610c7f906112b4565b80601f0160208091040260200160405190810160405280929190818152602001828054610cab906112b4565b8015610cf85780601f10610ccd57610100808354040283529160200191610cf8565b820191906000526020600020905b815481529060010190602001808311610cdb57829003601f168201915b505050505090806004018054610d0d906112b4565b80601f0160208091040260200160405190810160405280929190818152602001828054610d39906112b4565b8015610d865780601f10610d5b57610100808354040283529160200191610d86565b820191906000526020600020905b815481529060010190602001808311610d6957829003601f168201915b50505050600583015460068401546007909401549293909260ff8083169350610100830481169262010000900416908a565b6001600160a01b038116600090815260046020908152604080832081518083019092528054825260010154918101829052908203610df95750600092915050565b60208101518151610e0a919061144f565b9392505050565b610e19610fc6565b600081815260026020526040902060018101546001600160a01b0316610e7a5760405162461bcd60e51b815260206004820152601660248201527514d95c9d9a58d948191bd95cc81b9bdd08195e1a5cdd60521b60448201526064016102a9565b600681015460ff16610ec65760405162461bcd60e51b815260206004820152601560248201527453657276696365206973206e6f742061637469766560581b60448201526064016102a9565b60028101546001600160a01b031615610f195760405162461bcd60e51b815260206004820152601560248201527414d95c9d9a58d948185b1c9958591e481a1a5c9959605a1b60448201526064016102a9565b80600501543414610f6c5760405162461bcd60e51b815260206004820181905260248201527f5061796d656e74206d757374206d61746368207365727669636520707269636560448201526064016102a9565b6002810180546001600160a01b031916339081179091556000838152600360205260408082203490555184917f275ab44b0c246a31e80d4be1133500786fb735dd528a1c8dbd0245896c6b142191a350610a296001600055565b6002600054036110185760405162461bcd60e51b815260206004820152601f60248201527f5265656e7472616e637947756172643a207265656e7472616e742063616c6c0060448201526064016102a9565b6002600055565b634e487b7160e01b600052604160045260246000fd5b600082601f83011261104657600080fd5b813567ffffffffffffffff808211156110615761106161101f565b604051601f8301601f19908116603f011681019082821181831017156110895761108961101f565b816040528381528660208588010111156110a257600080fd5b836020870160208301376000602085830101528094505050505092915050565b600080600080608085870312156110d857600080fd5b843567ffffffffffffffff808211156110f057600080fd5b6110fc88838901611035565b9550602087013591508082111561111257600080fd5b5061111f87828801611035565b949794965050505060408301359260600135919050565b6000806040838503121561114957600080fd5b82359150602083013560ff8116811461116157600080fd5b809150509250929050565b60006020828403121561117e57600080fd5b81356001600160a01b0381168114610e0a57600080fd5b6000602082840312156111a757600080fd5b5035919050565b6000815180845260005b818110156111d4576020818501810151868301820152016111b8565b506000602082860101526020601f19601f83011685010191505092915050565b8a81526001600160a01b038a8116602083015289166040820152610140606082018190526000906112278382018b6111ae565b9050828103608084015261123b818a6111ae565b60a0840198909852505093151560c085015291151560e084015260ff166101008301526101209091015295945050505050565b634e487b7160e01b600052601160045260246000fd5b808202811582820484141761129b5761129b61126e565b92915050565b8082018082111561129b5761129b61126e565b600181811c908216806112c857607f821691505b6020821081036112e857634e487b7160e01b600052602260045260246000fd5b50919050565b601f82111561133857600081815260208120601f850160051c810160208610156113155750805b601f850160051c820191505b8181101561133457828155600101611321565b5050505b505050565b815167ffffffffffffffff8111156113575761135761101f565b61136b8161136584546112b4565b846112ee565b602080601f8311600181146113a057600084156113885750858301515b600019600386901b1c1916600185901b178555611334565b600085815260208120601f198616915b828110156113cf578886015182559484019460019091019084016113b0565b50858210156113ed5787850151600019600388901b60f8161c191681555b5050505050600190811b01905550565b60006001820161140f5761140f61126e565b5060010190565b60808152600061142960808301876111ae565b828103602084015261143b81876111ae565b604084019590955250506060015292915050565b60008261146c57634e487b7160e01b600052601260045260246000fd5b50049056fea26469706673582212202c7fb6c4c7fb6719cc43a8670a500adc5da1010b21d517499fbbac38876528e364736f6c63430008110033",
  "immutableReferences": {},
  "source": "// SPDX-License-Identifier: MIT\r\npragma solidity ^0.8.0;\r\n\r\nimport \"@openzeppelin/contracts/security/ReentrancyGuard.sol\";\r\n\r\ncontract FreelanceMarketplace is ReentrancyGuard {\r\n    struct Service {\r\n        uint256 id;\r\n        address freelancer;\r\n        address client;\r\n        string title;\r\n        string description;\r\n        uint256 price;\r\n        bool isActive;\r\n        bool isPaid;\r\n        uint8 rating; \r\n        uint256 deadline;\r\n    }\r\n\r\n    struct FreelancerRating {\r\n        uint256 total; \r\n        uint256 count; \r\n    }\r\n\r\n    uint256 private serviceCounter;\r\n    \r\n    mapping(uint256 => Service) public services;\r\n    \r\n    mapping(uint256 => uint256) public escrowedFunds;\r\n\r\n    mapping(address => FreelancerRating) public freelancerRatings;\r\n    \r\n    event ServiceOffered(uint256 indexed serviceId, address indexed freelancer, string title, string description, uint256 price, uint256 deadline);\r\n    event FreelancerHired(uint256 indexed serviceId, address indexed client);\r\n    event PaymentReleased(uint256 indexed serviceId, address indexed freelancer, uint256 amount);\r\n    event ClientRefunded(uint256 indexed serviceId, address indexed client, uint256 amount);\r\n    event ServiceRated(uint256 indexed serviceId, address indexed client, uint8 rating);\r\n    \r\n    /**\r\n     * @dev Allows freelancers to list their services\r\n     * @param _title Short service title\r\n     * @param _price Service cost in wei\r\n     * @param _description Description of the service\r\n     * @param _deadline Deadline in days from creation\r\n     */\r\n    function offerService(string memory _title, string memory _description, uint256 _price, uint256 _deadline) external returns (uint256) {\r\n        require(bytes(_title).length > 0, \"Title cannot be empty\");\r\n        require(bytes(_description).length > 0, \"Description cannot be empty\");\r\n        require(_price > 0, \"Price must be greater than 0\");\r\n        require(_deadline > 0, \"Deadline must be in the future\");\r\n        \r\n        uint256 serviceId = serviceCounter;\r\n        uint256 deadlineTimestamp = block.timestamp + (_deadline * 1 days);\r\n        \r\n        services[serviceId] = Service({\r\n            id: serviceId,\r\n            freelancer: msg.sender,\r\n            client: address(0),\r\n            title: _title,\r\n            description: _description,\r\n            price: _price,\r\n            isActive: true,\r\n            isPaid: false,\r\n            rating: 0,\r\n            deadline: deadlineTimestamp\r\n        });\r\n        \r\n        serviceCounter++;\r\n        \r\n        emit ServiceOffered(serviceId, msg.sender, _title, _description, _price, _deadline);\r\n        return serviceId;\r\n    }\r\n    \r\n    /**\r\n     * @dev Allows clients to hire a freelancer and escrow payment\r\n     * @param _serviceId ID of the service to hire\r\n     */\r\n    function hireFreelancer(uint256 _serviceId) external payable nonReentrant {\r\n        Service storage service = services[_serviceId];\r\n        \r\n        require(service.freelancer != address(0), \"Service does not exist\");\r\n        require(service.isActive, \"Service is not active\");\r\n        require(service.client == address(0), \"Service already hired\");\r\n        require(msg.value == service.price, \"Payment must match service price\");\r\n        \r\n        service.client = msg.sender;\r\n        escrowedFunds[_serviceId] = msg.value;\r\n        \r\n        emit FreelancerHired(_serviceId, msg.sender);\r\n    }\r\n    \r\n    /**\r\n     * @dev Allows client to release payment to freelancer after work completion\r\n     * @param _serviceId ID of the service\r\n     */\r\n    function releasePayment(uint256 _serviceId) external nonReentrant {\r\n        Service storage service = services[_serviceId];\r\n        \r\n        require(service.client == msg.sender, \"Only client can release payment\");\r\n        require(!service.isPaid, \"Payment already released\");\r\n        require(escrowedFunds[_serviceId] > 0, \"No funds in escrow\");    \r\n        uint256 amount = escrowedFunds[_serviceId];\r\n       \r\n        escrowedFunds[_serviceId] = 0;\r\n        service.isPaid = true;\r\n        service.isActive = false;\r\n        \r\n        (bool success, ) = payable(service.freelancer).call{value: amount}(\"\");\r\n        require(success, \"Payment failed\");\r\n        \r\n        emit PaymentReleased(_serviceId, service.freelancer, amount);\r\n    }\r\n    /**\r\n     * @dev Allows client to release payment to freelancer after work completion\r\n     * @param _serviceId ID of the service\r\n     */\r\n    function refundClient(uint256 _serviceId) external nonReentrant() {\r\n        Service storage service = services[_serviceId];\r\n\r\n        require(service.client == msg.sender, \"Only client can request refund\");\r\n        require(!service.isPaid, \"Payment already released\");\r\n        require(escrowedFunds[_serviceId] > 0, \"No funds in escrow\");\r\n        require(service.deadline < block.timestamp, \"Refunds won't be issued before the deadline\");\r\n\r\n        uint256 amount = escrowedFunds[_serviceId];\r\n        \r\n        escrowedFunds[_serviceId] = 0;\r\n        service.isActive = false;\r\n        \r\n        (bool success, ) = payable(service.client).call{value: amount}(\"\");\r\n        require(success, \"Refund failed\");\r\n        \r\n        emit ClientRefunded(_serviceId, service.client, amount);\r\n    }\r\n\r\n    /**\r\n     * @dev Allows the client to rate a service (only if payment was released).\r\n     * @param _serviceId ID of the service to rate.\r\n     * @param _rating Service rating value (must be between 1 and 5).\r\n     */\r\n    function rateService(uint256 _serviceId, uint8 _rating) external nonReentrant {\r\n        Service storage service = services[_serviceId];\r\n\r\n        require(service.client == msg.sender, \"Only client can rate the service\");\r\n        require(service.isPaid, \"Service payment not released yet\");\r\n        require(_rating >= 1 && _rating <= 5, \"Rating must be between 1 and 5\");\r\n        require(service.rating == 0, \"Service already rated\");\r\n        \r\n        service.rating = _rating;\r\n        \r\n        freelancerRatings[service.freelancer].total += _rating;\r\n        freelancerRatings[service.freelancer].count += 1;\r\n        \r\n        emit ServiceRated(_serviceId, msg.sender, _rating);\r\n    }\r\n\r\n    /**\r\n     * @dev Returns the average rating of a freelancer.\r\n     * @param _freelancer Address of the freelancer.\r\n     * @return The average rating as an integer (0 if no ratings present).\r\n     */\r\n    function getAverageRating(address _freelancer) external view returns (uint256) {\r\n        FreelancerRating memory rating = freelancerRatings[_freelancer];\r\n        if (rating.count == 0) {\r\n            return 0;\r\n        }\r\n        return rating.total / rating.count;\r\n    }\r\n\r\n    /**\r\n     * @dev Returns the number of ratings received by a certain freelancer.\r\n     * @param _freelancer Address of the freelancer.\r\n     * @return The number of ratings as an integer (0 if no ratings present).\r\n     */\r\n    function getRatingCount(address _freelancer) external view returns (uint256) {\r\n        return freelancerRatings[_freelancer].count;\r\n    }\r\n\r\n    /**\r\n     * @dev Returns all listed services\r\n     */\r\n    function getServiceCount() external view returns (uint256) {\r\n        return serviceCounter;\r\n    }\r\n}\r\n",
  "sourcePath": "C:\\My Folders\\Blockchain Assignments\\SmartContractors-Freelance-Marketplace\\contracts\\FreelanceMarketplace.sol",
  "compiler": {
    "name": "solc",
    "version": "0.8.17+commit.8df45f5f.Emscripten.clang"
  },
  "schemaVersion": "3.4.16",
  "updatedAt": "2025-04-25T06:50:35.937Z",
  "devdoc": {
    "kind": "dev",
    "methods": {
      "getAverageRating(address)": {
        "details": "Returns the average rating of a freelancer.",
        "params": {
          "_freelancer": "Address of the freelancer."
        },
        "returns": {
          "_0": "The average rating as an integer (0 if no ratings present)."
        }
      },
      "getRatingCount(address)": {
        "details": "Returns the number of ratings received by a certain freelancer.",
        "params": {
          "_freelancer": "Address of the freelancer."
        },
        "returns": {
          "_0": "The number of ratings as an integer (0 if no ratings present)."
        }
      },
      "getServiceCount()": {
        "details": "Returns all listed services"
      },
      "hireFreelancer(uint256)": {
        "details": "Allows clients to hire a freelancer and escrow payment",
        "params": {
          "_serviceId": "ID of the service to hire"
        }
      },
      "offerService(string,string,uint256,uint256)": {
        "details": "Allows freelancers to list their services",
        "params": {
          "_deadline": "Deadline in days from creation",
          "_description": "Description of the service",
          "_price": "Service cost in wei",
          "_title": "Short service title"
        }
      },
      "rateService(uint256,uint8)": {
        "details": "Allows the client to rate a service (only if payment was released).",
        "params": {
          "_rating": "Service rating value (must be between 1 and 5).",
          "_serviceId": "ID of the service to rate."
        }
      },
      "refundClient(uint256)": {
        "details": "Allows client to release payment to freelancer after work completion",
        "params": {
          "_serviceId": "ID of the service"
        }
      },
      "releasePayment(uint256)": {
        "details": "Allows client to release payment to freelancer after work completion",
        "params": {
          "_serviceId": "ID of the service"
        }
      }
    },
    "version": 1
  },
  "userdoc": {
    "kind": "user",
    "methods": {},
    "version": 1
  }
}