{
  "contractName": "FreelanceMarketplace",
  "abi": [
    {
      "anonymous": false,
      "inputs": [
        {
          "indexed": true,
          "internalType": "uint256",
          "name": "serviceId",
          "type": "uint256"
        },
        {
          "indexed": true,
          "internalType": "address",
          "name": "client",
          "type": "address"
        },
        {
          "indexed": false,
          "internalType": "uint256",
          "name": "amount",
          "type": "uint256"
        }
      ],
      "name": "ClientRefunded",
      "type": "event"
    },
    {
      "anonymous": false,
      "inputs": [
        {
          "indexed": true,
          "internalType": "uint256",
          "name": "serviceId",
          "type": "uint256"
        },
        {
          "indexed": true,
          "internalType": "address",
          "name": "client",
          "type": "address"
        }
      ],
      "name": "FreelancerHired",
      "type": "event"
    },
    {
      "anonymous": false,
      "inputs": [
        {
          "indexed": true,
          "internalType": "uint256",
          "name": "serviceId",
          "type": "uint256"
        },
        {
          "indexed": true,
          "internalType": "address",
          "name": "freelancer",
          "type": "address"
        },
        {
          "indexed": false,
          "internalType": "uint256",
          "name": "amount",
          "type": "uint256"
        }
      ],
      "name": "PaymentReleased",
      "type": "event"
    },
    {
      "anonymous": false,
      "inputs": [
        {
          "indexed": true,
          "internalType": "uint256",
          "name": "serviceId",
          "type": "uint256"
        },
        {
          "indexed": true,
          "internalType": "address",
          "name": "freelancer",
          "type": "address"
        },
        {
          "indexed": false,
          "internalType": "string",
          "name": "title",
          "type": "string"
        },
        {
          "indexed": false,
          "internalType": "uint256",
          "name": "price",
          "type": "uint256"
        }
      ],
      "name": "ServiceOffered",
      "type": "event"
    },
    {
      "inputs": [
        {
          "internalType": "uint256",
          "name": "",
          "type": "uint256"
        }
      ],
      "name": "escrowedFunds",
      "outputs": [
        {
          "internalType": "uint256",
          "name": "",
          "type": "uint256"
        }
      ],
      "stateMutability": "view",
      "type": "function",
      "constant": true
    },
    {
      "inputs": [
        {
          "internalType": "uint256",
          "name": "",
          "type": "uint256"
        }
      ],
      "name": "services",
      "outputs": [
        {
          "internalType": "uint256",
          "name": "id",
          "type": "uint256"
        },
        {
          "internalType": "address",
          "name": "freelancer",
          "type": "address"
        },
        {
          "internalType": "address",
          "name": "client",
          "type": "address"
        },
        {
          "internalType": "string",
          "name": "title",
          "type": "string"
        },
        {
          "internalType": "uint256",
          "name": "price",
          "type": "uint256"
        },
        {
          "internalType": "bool",
          "name": "isActive",
          "type": "bool"
        },
        {
          "internalType": "bool",
          "name": "isPaid",
          "type": "bool"
        }
      ],
      "stateMutability": "view",
      "type": "function",
      "constant": true
    },
    {
      "inputs": [
        {
          "internalType": "string",
          "name": "_title",
          "type": "string"
        },
        {
          "internalType": "uint256",
          "name": "_price",
          "type": "uint256"
        }
      ],
      "name": "offerService",
      "outputs": [
        {
          "internalType": "uint256",
          "name": "",
          "type": "uint256"
        }
      ],
      "stateMutability": "nonpayable",
      "type": "function"
    },
    {
      "inputs": [
        {
          "internalType": "uint256",
          "name": "_serviceId",
          "type": "uint256"
        }
      ],
      "name": "hireFreelancer",
      "outputs": [],
      "stateMutability": "payable",
      "type": "function",
      "payable": true
    },
    {
      "inputs": [
        {
          "internalType": "uint256",
          "name": "_serviceId",
          "type": "uint256"
        }
      ],
      "name": "releasePayment",
      "outputs": [],
      "stateMutability": "nonpayable",
      "type": "function"
    },
    {
      "inputs": [
        {
          "internalType": "uint256",
          "name": "_serviceId",
          "type": "uint256"
        }
      ],
      "name": "refundClient",
      "outputs": [],
      "stateMutability": "nonpayable",
      "type": "function"
    },
    {
      "inputs": [],
      "name": "getServiceCount",
      "outputs": [
        {
          "internalType": "uint256",
          "name": "",
          "type": "uint256"
        }
      ],
      "stateMutability": "view",
      "type": "function",
      "constant": true
    }
  ],
  "bytecode": "0x608060405234801561001057600080fd5b506001600055610da7806100256000396000f3fe6080604052600436106100705760003560e01c806388685cd91161004e57806388685cd9146100db578063b489e147146100fb578063c22c4f4314610128578063ddd710da1461015b57600080fd5b80633672404e1461007557806343eed51c146100995780636087bbd7146100bb575b600080fd5b34801561008157600080fd5b506001545b6040519081526020015b60405180910390f35b3480156100a557600080fd5b506100b96100b4366004610a62565b61016e565b005b3480156100c757600080fd5b506100866100d6366004610a91565b610398565b3480156100e757600080fd5b506100b96100f6366004610a62565b610565565b34801561010757600080fd5b50610086610116366004610a62565b60036020526000908152604090205481565b34801561013457600080fd5b50610148610143366004610a62565b61077c565b6040516100909796959493929190610b8c565b6100b9610169366004610a62565b610854565b610176610a09565b6000818152600260208190526040909120908101546001600160a01b031633146101e75760405162461bcd60e51b815260206004820152601e60248201527f4f6e6c7920636c69656e742063616e207265717565737420726566756e64000060448201526064015b60405180910390fd5b6005810154610100900460ff161561023c5760405162461bcd60e51b815260206004820152601860248201527714185e5b595b9d08185b1c9958591e481c995b19585cd95960421b60448201526064016101de565b60008281526003602052604090205461028c5760405162461bcd60e51b81526020600482015260126024820152714e6f2066756e647320696e20657363726f7760701b60448201526064016101de565b60008281526003602052604080822080549083905560058401805460ff19169055600284015491519092916001600160a01b03169083908381818185875af1925050503d80600081146102fb576040519150601f19603f3d011682016040523d82523d6000602084013e610300565b606091505b50509050806103415760405162461bcd60e51b815260206004820152600d60248201526c1499599d5b990819985a5b1959609a1b60448201526064016101de565b60028301546040518381526001600160a01b039091169085907f710864ae79ae7195dbcaa0f79eef4a8f5b490696c2d588a27f4d69ce60ac01fc906020015b60405180910390a35050506103956001600055565b50565b6000808351116103e25760405162461bcd60e51b81526020600482015260156024820152745469746c652063616e6e6f7420626520656d70747960581b60448201526064016101de565b600082116104325760405162461bcd60e51b815260206004820152601c60248201527f5072696365206d7573742062652067726561746572207468616e20300000000060448201526064016101de565b600180546040805160e0810182528281523360208083019182526000838501818152606085018b8152608086018b905260a0860189905260c086018390528783526002938490529590912084518155925196830180546001600160a01b039889166001600160a01b031991821617909155905191830180549290971691161790945590519192909160038201906104c99082610c68565b506080820151600482015560a08201516005909101805460c09093015115156101000261ff00199215159290921661ffff19909316929092171790556001805490600061051583610d28565b9190505550336001600160a01b0316817f11c5fff3b5aeb9b7782b5c4b7b3260a1272d2bcd72f9c401e68d23465a260f8a8686604051610556929190610d4f565b60405180910390a39392505050565b61056d610a09565b6000818152600260208190526040909120908101546001600160a01b031633146105d95760405162461bcd60e51b815260206004820152601f60248201527f4f6e6c7920636c69656e742063616e2072656c65617365207061796d656e740060448201526064016101de565b6005810154610100900460ff161561062e5760405162461bcd60e51b815260206004820152601860248201527714185e5b595b9d08185b1c9958591e481c995b19585cd95960421b60448201526064016101de565b60008281526003602052604090205461067e5760405162461bcd60e51b81526020600482015260126024820152714e6f2066756e647320696e20657363726f7760701b60448201526064016101de565b60008281526003602052604080822080549083905560058401805461ffff1916610100179055600184015491519092916001600160a01b03169083908381818185875af1925050503d80600081146106f2576040519150601f19603f3d011682016040523d82523d6000602084013e6106f7565b606091505b50509050806107395760405162461bcd60e51b815260206004820152600e60248201526d14185e5b595b9d0819985a5b195960921b60448201526064016101de565b60018301546040518381526001600160a01b039091169085907f21d71db5be59bb9fa133895586b7404307dd33fb93b16db09dc6f1d9d7d231b090602001610380565b6002602081905260009182526040909120805460018201549282015460038301805492946001600160a01b03908116949216926107b890610bdf565b80601f01602080910402602001604051908101604052809291908181526020018280546107e490610bdf565b80156108315780601f1061080657610100808354040283529160200191610831565b820191906000526020600020905b81548152906001019060200180831161081457829003601f168201915b50505050600483015460059093015491929160ff80821692506101009091041687565b61085c610a09565b600081815260026020526040902060018101546001600160a01b03166108bd5760405162461bcd60e51b815260206004820152601660248201527514d95c9d9a58d948191bd95cc81b9bdd08195e1a5cdd60521b60448201526064016101de565b600581015460ff166109095760405162461bcd60e51b815260206004820152601560248201527453657276696365206973206e6f742061637469766560581b60448201526064016101de565b60028101546001600160a01b03161561095c5760405162461bcd60e51b815260206004820152601560248201527414d95c9d9a58d948185b1c9958591e481a1a5c9959605a1b60448201526064016101de565b806004015434146109af5760405162461bcd60e51b815260206004820181905260248201527f5061796d656e74206d757374206d61746368207365727669636520707269636560448201526064016101de565b6002810180546001600160a01b031916339081179091556000838152600360205260408082203490555184917f275ab44b0c246a31e80d4be1133500786fb735dd528a1c8dbd0245896c6b142191a3506103956001600055565b600260005403610a5b5760405162461bcd60e51b815260206004820152601f60248201527f5265656e7472616e637947756172643a207265656e7472616e742063616c6c0060448201526064016101de565b6002600055565b600060208284031215610a7457600080fd5b5035919050565b634e487b7160e01b600052604160045260246000fd5b60008060408385031215610aa457600080fd5b823567ffffffffffffffff80821115610abc57600080fd5b818501915085601f830112610ad057600080fd5b813581811115610ae257610ae2610a7b565b604051601f8201601f19908116603f01168101908382118183101715610b0a57610b0a610a7b565b81604052828152886020848701011115610b2357600080fd5b826020860160208301376000602093820184015298969091013596505050505050565b6000815180845260005b81811015610b6c57602081850181015186830182015201610b50565b506000602082860101526020601f19601f83011685010191505092915050565b8781526001600160a01b0387811660208301528616604082015260e060608201819052600090610bbe90830187610b46565b60808301959095525091151560a0830152151560c090910152949350505050565b600181811c90821680610bf357607f821691505b602082108103610c1357634e487b7160e01b600052602260045260246000fd5b50919050565b601f821115610c6357600081815260208120601f850160051c81016020861015610c405750805b601f850160051c820191505b81811015610c5f57828155600101610c4c565b5050505b505050565b815167ffffffffffffffff811115610c8257610c82610a7b565b610c9681610c908454610bdf565b84610c19565b602080601f831160018114610ccb5760008415610cb35750858301515b600019600386901b1c1916600185901b178555610c5f565b600085815260208120601f198616915b82811015610cfa57888601518255948401946001909101908401610cdb565b5085821015610d185787850151600019600388901b60f8161c191681555b5050505050600190811b01905550565b600060018201610d4857634e487b7160e01b600052601160045260246000fd5b5060010190565b604081526000610d626040830185610b46565b9050826020830152939250505056fea2646970667358221220fec3a0997e6d753f753daeaf6953f68bfb17599a2bdf1336fa1cc0a4978f3c2864736f6c63430008110033",
  "immutableReferences": {},
  "source": "// SPDX-License-Identifier: MIT\npragma solidity ^0.8.0;\n\nimport \"@openzeppelin/contracts/security/ReentrancyGuard.sol\";\n\ncontract FreelanceMarketplace is ReentrancyGuard {\n    // Service struct to store service details\n    struct Service {\n        uint256 id;\n        address freelancer;\n        address client;\n        string title;\n        uint256 price;\n        bool isActive;\n        bool isPaid;\n    }\n\n    // Counter for service IDs\n    uint256 private serviceCounter;\n    \n    // Mapping from service ID to Service struct\n    mapping(uint256 => Service) public services;\n    \n    // Mapping to track escrowed funds for each service\n    mapping(uint256 => uint256) public escrowedFunds;\n    \n    // Events\n    event ServiceOffered(uint256 indexed serviceId, address indexed freelancer, string title, uint256 price);\n    event FreelancerHired(uint256 indexed serviceId, address indexed client);\n    event PaymentReleased(uint256 indexed serviceId, address indexed freelancer, uint256 amount);\n    event ClientRefunded(uint256 indexed serviceId, address indexed client, uint256 amount);\n    \n    /**\n     * @dev Allows freelancers to list their services\n     * @param _title Short service title\n     * @param _price Service cost in wei\n     */\n    function offerService(string memory _title, uint256 _price) external returns (uint256) {\n        require(bytes(_title).length > 0, \"Title cannot be empty\");\n        require(_price > 0, \"Price must be greater than 0\");\n        \n        uint256 serviceId = serviceCounter;\n        \n        services[serviceId] = Service({\n            id: serviceId,\n            freelancer: msg.sender,\n            client: address(0),\n            title: _title,\n            price: _price,\n            isActive: true,\n            isPaid: false\n        });\n        \n        serviceCounter++;\n        \n        emit ServiceOffered(serviceId, msg.sender, _title, _price);\n        return serviceId;\n    }\n    \n    /**\n     * @dev Allows clients to hire a freelancer and escrow payment\n     * @param _serviceId ID of the service to hire\n     */\n    function hireFreelancer(uint256 _serviceId) external payable nonReentrant {\n        Service storage service = services[_serviceId];\n        \n        require(service.freelancer != address(0), \"Service does not exist\");\n        require(service.isActive, \"Service is not active\");\n        require(service.client == address(0), \"Service already hired\");\n        require(msg.value == service.price, \"Payment must match service price\");\n        \n        service.client = msg.sender;\n        escrowedFunds[_serviceId] = msg.value;\n        \n        emit FreelancerHired(_serviceId, msg.sender);\n    }\n    \n    /**\n     * @dev Allows client to release payment to freelancer after work completion\n     * @param _serviceId ID of the service\n     */\n    function releasePayment(uint256 _serviceId) external nonReentrant {\n        Service storage service = services[_serviceId];\n        \n        require(service.client == msg.sender, \"Only client can release payment\");\n        require(!service.isPaid, \"Payment already released\");\n        require(escrowedFunds[_serviceId] > 0, \"No funds in escrow\");\n        \n        uint256 amount = escrowedFunds[_serviceId];\n        escrowedFunds[_serviceId] = 0;\n        service.isPaid = true;\n        service.isActive = false;\n        \n        (bool success, ) = payable(service.freelancer).call{value: amount}(\"\");\n        require(success, \"Payment failed\");\n        \n        emit PaymentReleased(_serviceId, service.freelancer, amount);\n    }\n    \n    /**\n     * @dev Allows client to request refund (could be extended with deadline logic)\n     * @param _serviceId ID of the service\n     */\n    function refundClient(uint256 _serviceId) external nonReentrant {\n        Service storage service = services[_serviceId];\n        \n        require(service.client == msg.sender, \"Only client can request refund\");\n        require(!service.isPaid, \"Payment already released\");\n        require(escrowedFunds[_serviceId] > 0, \"No funds in escrow\");\n        \n        uint256 amount = escrowedFunds[_serviceId];\n        escrowedFunds[_serviceId] = 0;\n        service.isActive = false;\n        \n        (bool success, ) = payable(service.client).call{value: amount}(\"\");\n        require(success, \"Refund failed\");\n        \n        emit ClientRefunded(_serviceId, service.client, amount);\n    }\n    \n    /**\n     * @dev Returns all listed services\n     */\n    function getServiceCount() external view returns (uint256) {\n        return serviceCounter;\n    }\n}\n",
  "sourcePath": "C:\\Users\\magic\\OneDrive\\Desktop\\Freelance_Marketplace\\contracts\\FreelanceMarketplace.sol",
  "compiler": {
    "name": "solc",
    "version": "0.8.17+commit.8df45f5f.Emscripten.clang"
  },
  "schemaVersion": "3.4.16",
  "updatedAt": "2025-04-19T12:18:20.459Z",
  "networkType": "ethereum",
  "devdoc": {
    "kind": "dev",
    "methods": {
      "getServiceCount()": {
        "details": "Returns all listed services"
      },
      "hireFreelancer(uint256)": {
        "details": "Allows clients to hire a freelancer and escrow payment",
        "params": {
          "_serviceId": "ID of the service to hire"
        }
      },
      "offerService(string,uint256)": {
        "details": "Allows freelancers to list their services",
        "params": {
          "_price": "Service cost in wei",
          "_title": "Short service title"
        }
      },
      "refundClient(uint256)": {
        "details": "Allows client to request refund (could be extended with deadline logic)",
        "params": {
          "_serviceId": "ID of the service"
        }
      },
      "releasePayment(uint256)": {
        "details": "Allows client to release payment to freelancer after work completion",
        "params": {
          "_serviceId": "ID of the service"
        }
      }
    },
    "version": 1
  },
  "userdoc": {
    "kind": "user",
    "methods": {},
    "version": 1
  }
}