{
  "contractName": "FreelanceMarketplace",
  "abi": [
    {
      "anonymous": false,
      "inputs": [
        {
          "indexed": true,
          "internalType": "uint256",
          "name": "serviceId",
          "type": "uint256"
        },
        {
          "indexed": true,
          "internalType": "address",
          "name": "client",
          "type": "address"
        }
      ],
      "name": "FreelancerHired",
      "type": "event"
    },
    {
      "anonymous": false,
      "inputs": [
        {
          "indexed": true,
          "internalType": "uint256",
          "name": "serviceId",
          "type": "uint256"
        },
        {
          "indexed": true,
          "internalType": "address",
          "name": "freelancer",
          "type": "address"
        },
        {
          "indexed": false,
          "internalType": "uint256",
          "name": "amount",
          "type": "uint256"
        }
      ],
      "name": "PaymentReleased",
      "type": "event"
    },
    {
      "anonymous": false,
      "inputs": [
        {
          "indexed": true,
          "internalType": "uint256",
          "name": "serviceId",
          "type": "uint256"
        },
        {
          "indexed": true,
          "internalType": "address",
          "name": "freelancer",
          "type": "address"
        },
        {
          "indexed": false,
          "internalType": "string",
          "name": "title",
          "type": "string"
        },
        {
          "indexed": false,
          "internalType": "uint256",
          "name": "price",
          "type": "uint256"
        }
      ],
      "name": "ServiceOffered",
      "type": "event"
    },
    {
      "anonymous": false,
      "inputs": [
        {
          "indexed": true,
          "internalType": "uint256",
          "name": "serviceId",
          "type": "uint256"
        },
        {
          "indexed": true,
          "internalType": "address",
          "name": "client",
          "type": "address"
        },
        {
          "indexed": false,
          "internalType": "uint8",
          "name": "rating",
          "type": "uint8"
        }
      ],
      "name": "ServiceRated",
      "type": "event"
    },
    {
      "inputs": [
        {
          "internalType": "uint256",
          "name": "",
          "type": "uint256"
        }
      ],
      "name": "escrowedFunds",
      "outputs": [
        {
          "internalType": "uint256",
          "name": "",
          "type": "uint256"
        }
      ],
      "stateMutability": "view",
      "type": "function"
    },
    {
      "inputs": [
        {
          "internalType": "address",
          "name": "",
          "type": "address"
        }
      ],
      "name": "freelancerRatings",
      "outputs": [
        {
          "internalType": "uint256",
          "name": "total",
          "type": "uint256"
        },
        {
          "internalType": "uint256",
          "name": "count",
          "type": "uint256"
        }
      ],
      "stateMutability": "view",
      "type": "function"
    },
    {
      "inputs": [
        {
          "internalType": "uint256",
          "name": "",
          "type": "uint256"
        }
      ],
      "name": "services",
      "outputs": [
        {
          "internalType": "uint256",
          "name": "id",
          "type": "uint256"
        },
        {
          "internalType": "address",
          "name": "freelancer",
          "type": "address"
        },
        {
          "internalType": "address",
          "name": "client",
          "type": "address"
        },
        {
          "internalType": "string",
          "name": "title",
          "type": "string"
        },
        {
          "internalType": "uint256",
          "name": "price",
          "type": "uint256"
        },
        {
          "internalType": "bool",
          "name": "isActive",
          "type": "bool"
        },
        {
          "internalType": "bool",
          "name": "isPaid",
          "type": "bool"
        },
        {
          "internalType": "uint8",
          "name": "rating",
          "type": "uint8"
        }
      ],
      "stateMutability": "view",
      "type": "function"
    },
    {
      "inputs": [
        {
          "internalType": "string",
          "name": "_title",
          "type": "string"
        },
        {
          "internalType": "uint256",
          "name": "_price",
          "type": "uint256"
        }
      ],
      "name": "offerService",
      "outputs": [
        {
          "internalType": "uint256",
          "name": "",
          "type": "uint256"
        }
      ],
      "stateMutability": "nonpayable",
      "type": "function"
    },
    {
      "inputs": [
        {
          "internalType": "uint256",
          "name": "_serviceId",
          "type": "uint256"
        }
      ],
      "name": "hireFreelancer",
      "outputs": [],
      "stateMutability": "payable",
      "type": "function"
    },
    {
      "inputs": [
        {
          "internalType": "uint256",
          "name": "_serviceId",
          "type": "uint256"
        }
      ],
      "name": "releasePayment",
      "outputs": [],
      "stateMutability": "nonpayable",
      "type": "function"
    },
    {
      "inputs": [
        {
          "internalType": "uint256",
          "name": "_serviceId",
          "type": "uint256"
        },
        {
          "internalType": "uint8",
          "name": "_rating",
          "type": "uint8"
        }
      ],
      "name": "rateService",
      "outputs": [],
      "stateMutability": "nonpayable",
      "type": "function"
    },
    {
      "inputs": [
        {
          "internalType": "address",
          "name": "_freelancer",
          "type": "address"
        }
      ],
      "name": "getAverageRating",
      "outputs": [
        {
          "internalType": "uint256",
          "name": "",
          "type": "uint256"
        }
      ],
      "stateMutability": "view",
      "type": "function"
    },
    {
      "inputs": [
        {
          "internalType": "address",
          "name": "_freelancer",
          "type": "address"
        }
      ],
      "name": "getRatingCount",
      "outputs": [
        {
          "internalType": "uint256",
          "name": "",
          "type": "uint256"
        }
      ],
      "stateMutability": "view",
      "type": "function"
    },
    {
      "inputs": [],
      "name": "getServiceCount",
      "outputs": [
        {
          "internalType": "uint256",
          "name": "",
          "type": "uint256"
        }
      ],
      "stateMutability": "view",
      "type": "function"
    }
  ],
  "bytecode": "0x608060405234801561001057600080fd5b506001600055610fdb806100256000396000f3fe6080604052600436106100915760003560e01c8063b489e14711610059578063b489e14714610165578063c22c4f4314610192578063c8b67522146101c6578063ddd710da146101e6578063ecdb1235146101f957600080fd5b80631a47acab1461009657806327db21e1146100b85780633672404e146101065780636087bbd71461012557806388685cd914610145575b600080fd5b3480156100a257600080fd5b506100b66100b1366004610bef565b610232565b005b3480156100c457600080fd5b506100ec6100d3366004610c25565b6004602052600090815260409020805460019091015482565b604080519283526020830191909152015b60405180910390f35b34801561011257600080fd5b506001545b6040519081526020016100fd565b34801561013157600080fd5b50610117610140366004610c64565b610487565b34801561015157600080fd5b506100b6610160366004610d19565b610679565b34801561017157600080fd5b50610117610180366004610d19565b60036020526000908152604090205481565b34801561019e57600080fd5b506101b26101ad366004610d19565b6108a8565b6040516100fd989796959493929190610d78565b3480156101d257600080fd5b506101176101e1366004610c25565b610988565b6100b66101f4366004610d19565b6109e1565b34801561020557600080fd5b50610117610214366004610c25565b6001600160a01b031660009081526004602052604090206001015490565b61023a610b96565b6000828152600260208190526040909120908101546001600160a01b031633146102ab5760405162461bcd60e51b815260206004820181905260248201527f4f6e6c7920636c69656e742063616e207261746520746865207365727669636560448201526064015b60405180910390fd5b6005810154610100900460ff166103045760405162461bcd60e51b815260206004820181905260248201527f53657276696365207061796d656e74206e6f742072656c65617365642079657460448201526064016102a2565b60018260ff161015801561031c575060058260ff1611155b6103685760405162461bcd60e51b815260206004820152601e60248201527f526174696e67206d757374206265206265747765656e203120616e642035000060448201526064016102a2565b600581015462010000900460ff16156103bb5760405162461bcd60e51b815260206004820152601560248201527414d95c9d9a58d948185b1c9958591e481c985d1959605a1b60448201526064016102a2565b60058101805462ff000019166201000060ff85169081029190911790915560018201546001600160a01b031660009081526004602052604081208054909190610405908490610dec565b90915550506001818101546001600160a01b0316600090815260046020526040812082018054909190610439908490610dec565b909155505060405160ff83168152339084907f4cfadb3896f7fc5de5413d3b196cab452ba6d0b2fe92b8a9b6c27a576eba8d379060200160405180910390a3506104836001600055565b5050565b6000808351116104d15760405162461bcd60e51b81526020600482015260156024820152745469746c652063616e6e6f7420626520656d70747960581b60448201526064016102a2565b600082116105215760405162461bcd60e51b815260206004820152601c60248201527f5072696365206d7573742062652067726561746572207468616e20300000000060448201526064016102a2565b6001805460408051610100810182528281523360208083019182526000838501818152606085018b8152608086018b905260a0860189905260c0860183905260e086018390528783526002938490529590912084518155925196830180546001600160a01b039889166001600160a01b031991821617909155905191830180549290971691161790945590519192909160038201906105c09082610e88565b506080820151600482015560a08201516005909101805460c084015160e09094015160ff16620100000262ff0000199415156101000261ff00199415159490941661ffff199092169190911792909217929092161790556001805490600061062783610f48565b9190505550336001600160a01b0316817f11c5fff3b5aeb9b7782b5c4b7b3260a1272d2bcd72f9c401e68d23465a260f8a8686604051610668929190610f61565b60405180910390a390505b92915050565b610681610b96565b6000818152600260208190526040909120908101546001600160a01b031633146106ed5760405162461bcd60e51b815260206004820152601f60248201527f4f6e6c7920636c69656e742063616e2072656c65617365207061796d656e740060448201526064016102a2565b6005810154610100900460ff16156107475760405162461bcd60e51b815260206004820152601860248201527f5061796d656e7420616c72656164792072656c6561736564000000000000000060448201526064016102a2565b6000828152600360205260409020546107975760405162461bcd60e51b81526020600482015260126024820152714e6f2066756e647320696e20657363726f7760701b60448201526064016102a2565b60008281526003602052604080822080549083905560058401805461ffff1916610100179055600184015491519092916001600160a01b03169083908381818185875af1925050503d806000811461080b576040519150601f19603f3d011682016040523d82523d6000602084013e610810565b606091505b50509050806108525760405162461bcd60e51b815260206004820152600e60248201526d14185e5b595b9d0819985a5b195960921b60448201526064016102a2565b60018301546040518381526001600160a01b039091169085907f21d71db5be59bb9fa133895586b7404307dd33fb93b16db09dc6f1d9d7d231b09060200160405180910390a35050506108a56001600055565b50565b6002602081905260009182526040909120805460018201549282015460038301805492946001600160a01b03908116949216926108e490610dff565b80601f016020809104026020016040519081016040528092919081815260200182805461091090610dff565b801561095d5780601f106109325761010080835404028352916020019161095d565b820191906000526020600020905b81548152906001019060200180831161094057829003601f168201915b50505050600483015460059093015491929160ff808216925061010082048116916201000090041688565b6001600160a01b0381166000908152600460209081526040808320815180830190925280548252600101549181018290529082036109c95750600092915050565b602081015181516109da9190610f83565b9392505050565b6109e9610b96565b600081815260026020526040902060018101546001600160a01b0316610a4a5760405162461bcd60e51b815260206004820152601660248201527514d95c9d9a58d948191bd95cc81b9bdd08195e1a5cdd60521b60448201526064016102a2565b600581015460ff16610a965760405162461bcd60e51b815260206004820152601560248201527453657276696365206973206e6f742061637469766560581b60448201526064016102a2565b60028101546001600160a01b031615610ae95760405162461bcd60e51b815260206004820152601560248201527414d95c9d9a58d948185b1c9958591e481a1a5c9959605a1b60448201526064016102a2565b80600401543414610b3c5760405162461bcd60e51b815260206004820181905260248201527f5061796d656e74206d757374206d61746368207365727669636520707269636560448201526064016102a2565b6002810180546001600160a01b031916339081179091556000838152600360205260408082203490555184917f275ab44b0c246a31e80d4be1133500786fb735dd528a1c8dbd0245896c6b142191a3506108a56001600055565b600260005403610be85760405162461bcd60e51b815260206004820152601f60248201527f5265656e7472616e637947756172643a207265656e7472616e742063616c6c0060448201526064016102a2565b6002600055565b60008060408385031215610c0257600080fd5b82359150602083013560ff81168114610c1a57600080fd5b809150509250929050565b600060208284031215610c3757600080fd5b81356001600160a01b03811681146109da57600080fd5b634e487b7160e01b600052604160045260246000fd5b60008060408385031215610c7757600080fd5b823567ffffffffffffffff80821115610c8f57600080fd5b818501915085601f830112610ca357600080fd5b813581811115610cb557610cb5610c4e565b604051601f8201601f19908116603f01168101908382118183101715610cdd57610cdd610c4e565b81604052828152886020848701011115610cf657600080fd5b826020860160208301376000602093820184015298969091013596505050505050565b600060208284031215610d2b57600080fd5b5035919050565b6000815180845260005b81811015610d5857602081850181015186830182015201610d3c565b506000602082860101526020601f19601f83011685010191505092915050565b8881526001600160a01b0388811660208301528716604082015261010060608201819052600090610dab83820189610d32565b6080840197909752505092151560a084015290151560c083015260ff1660e090910152949350505050565b634e487b7160e01b600052601160045260246000fd5b8082018082111561067357610673610dd6565b600181811c90821680610e1357607f821691505b602082108103610e3357634e487b7160e01b600052602260045260246000fd5b50919050565b601f821115610e8357600081815260208120601f850160051c81016020861015610e605750805b601f850160051c820191505b81811015610e7f57828155600101610e6c565b5050505b505050565b815167ffffffffffffffff811115610ea257610ea2610c4e565b610eb681610eb08454610dff565b84610e39565b602080601f831160018114610eeb5760008415610ed35750858301515b600019600386901b1c1916600185901b178555610e7f565b600085815260208120601f198616915b82811015610f1a57888601518255948401946001909101908401610efb565b5085821015610f385787850151600019600388901b60f8161c191681555b5050505050600190811b01905550565b600060018201610f5a57610f5a610dd6565b5060010190565b604081526000610f746040830185610d32565b90508260208301529392505050565b600082610fa057634e487b7160e01b600052601260045260246000fd5b50049056fea2646970667358221220441a1da0b338d432ed5e7e9b2583df33b77f060222ab87d63ef85366ba56ddcc64736f6c63430008110033",
  "immutableReferences": {},
  "source": "// SPDX-License-Identifier: MIT\r\npragma solidity ^0.8.0;\r\n\r\nimport \"@openzeppelin/contracts/security/ReentrancyGuard.sol\";\r\n\r\ncontract FreelanceMarketplace is ReentrancyGuard {\r\n    \r\n    struct Service {\r\n        uint256 id;\r\n        address freelancer;\r\n        address client;\r\n        string title;\r\n        uint256 price;\r\n        bool isActive;\r\n        bool isPaid;\r\n        uint8 rating; \r\n    }\r\n\r\n    struct FreelancerRating {\r\n        uint256 total; \r\n        uint256 count; \r\n    }\r\n\r\n    uint256 private serviceCounter;\r\n    \r\n    mapping(uint256 => Service) public services;\r\n\r\n    mapping(uint256 => uint256) public escrowedFunds;\r\n\r\n    mapping(address => FreelancerRating) public freelancerRatings;\r\n    \r\n    event ServiceOffered(uint256 indexed serviceId, address indexed freelancer, string title, uint256 price);\r\n    event FreelancerHired(uint256 indexed serviceId, address indexed client);\r\n    event PaymentReleased(uint256 indexed serviceId, address indexed freelancer, uint256 amount);\r\n    event ServiceRated(uint256 indexed serviceId, address indexed client, uint8 rating);\r\n    \r\n    /**\r\n     * @dev Allows freelancers to list their services\r\n     * @param _title Short service title\r\n     * @param _price Service cost in wei\r\n     */\r\n    function offerService(string memory _title, uint256 _price) external returns (uint256) {\r\n        require(bytes(_title).length > 0, \"Title cannot be empty\");\r\n        require(_price > 0, \"Price must be greater than 0\");\r\n        \r\n        uint256 serviceId = serviceCounter;\r\n        \r\n        services[serviceId] = Service({\r\n            id: serviceId,\r\n            freelancer: msg.sender,\r\n            client: address(0),\r\n            title: _title,\r\n            price: _price,\r\n            isActive: true,\r\n            isPaid: false,\r\n            rating: 0\r\n        });\r\n        \r\n        serviceCounter++;\r\n        \r\n        emit ServiceOffered(serviceId, msg.sender, _title, _price);\r\n        return serviceId;\r\n    }\r\n    \r\n    /**\r\n     * @dev Allows clients to hire a freelancer and escrow payment\r\n     * @param _serviceId ID of the service to hire\r\n     */\r\n    function hireFreelancer(uint256 _serviceId) external payable nonReentrant {\r\n        Service storage service = services[_serviceId];\r\n        \r\n        require(service.freelancer != address(0), \"Service does not exist\");\r\n        require(service.isActive, \"Service is not active\");\r\n        require(service.client == address(0), \"Service already hired\");\r\n        require(msg.value == service.price, \"Payment must match service price\");\r\n        \r\n        service.client = msg.sender;\r\n        escrowedFunds[_serviceId] = msg.value;\r\n        \r\n        emit FreelancerHired(_serviceId, msg.sender);\r\n    }\r\n    \r\n    /**\r\n     * @dev Allows client to release payment to freelancer after work completion\r\n     * @param _serviceId ID of the service\r\n     */\r\n    function releasePayment(uint256 _serviceId) external nonReentrant {\r\n        Service storage service = services[_serviceId];\r\n        \r\n        require(service.client == msg.sender, \"Only client can release payment\");\r\n        require(!service.isPaid, \"Payment already released\");\r\n        require(escrowedFunds[_serviceId] > 0, \"No funds in escrow\");\r\n\r\n        uint256 amount = escrowedFunds[_serviceId];\r\n\r\n        escrowedFunds[_serviceId] = 0;\r\n        service.isPaid = true;\r\n        service.isActive = false;\r\n        \r\n        (bool success, ) = payable(service.freelancer).call{value: amount}(\"\");\r\n        require(success, \"Payment failed\");\r\n        \r\n        emit PaymentReleased(_serviceId, service.freelancer, amount);\r\n    }\r\n    \r\n    /**\r\n     * @dev Allows the client to rate a service (only if payment was released).\r\n     * @param _serviceId ID of the service to rate.\r\n     * @param _rating Service rating value (must be between 1 and 5).\r\n     */\r\n    function rateService(uint256 _serviceId, uint8 _rating) external nonReentrant {\r\n        Service storage service = services[_serviceId];\r\n\r\n        require(service.client == msg.sender, \"Only client can rate the service\");\r\n        require(service.isPaid, \"Service payment not released yet\");\r\n        require(_rating >= 1 && _rating <= 5, \"Rating must be between 1 and 5\");\r\n        require(service.rating == 0, \"Service already rated\");\r\n        \r\n        service.rating = _rating;\r\n        \r\n        freelancerRatings[service.freelancer].total += _rating;\r\n        freelancerRatings[service.freelancer].count += 1;\r\n        \r\n        emit ServiceRated(_serviceId, msg.sender, _rating);\r\n    }\r\n\r\n    /**\r\n     * @dev Returns the average rating of a freelancer.\r\n     * @param _freelancer Address of the freelancer.\r\n     * @return The average rating as an integer (0 if no ratings present).\r\n     */\r\n    function getAverageRating(address _freelancer) external view returns (uint256) {\r\n        FreelancerRating memory rating = freelancerRatings[_freelancer];\r\n        if (rating.count == 0) {\r\n            return 0;\r\n        }\r\n        return rating.total / rating.count;\r\n    }\r\n\r\n    /**\r\n     * @dev Returns the number of ratings received by a certain freelancer.\r\n     * @param _freelancer Address of the freelancer.\r\n     * @return The number of ratings as an integer (0 if no ratings present).\r\n     */\r\n    function getRatingCount(address _freelancer) external view returns (uint256) {\r\n        return freelancerRatings[_freelancer].count;\r\n    }\r\n\r\n    /**\r\n     * @dev Returns all listed services\r\n     */\r\n    function getServiceCount() external view returns (uint256) {\r\n        return serviceCounter;\r\n    }\r\n}\r\n",
  "sourcePath": "C:\\Users\\srini\\OneDrive\\Desktop\\cur\\SmartContractors-Freelance-Marketplace\\contracts\\FreelanceMarketplace.sol",
  "compiler": {
    "name": "solc",
    "version": "0.8.17+commit.8df45f5f.Emscripten.clang"
  },
  "schemaVersion": "3.4.16",
  "updatedAt": "2025-04-24T10:58:36.674Z",
  "devdoc": {
    "kind": "dev",
    "methods": {
      "getAverageRating(address)": {
        "details": "Returns the average rating of a freelancer.",
        "params": {
          "_freelancer": "Address of the freelancer."
        },
        "returns": {
          "_0": "The average rating as an integer (0 if no ratings present)."
        }
      },
      "getRatingCount(address)": {
        "details": "Returns the number of ratings received by a certain freelancer.",
        "params": {
          "_freelancer": "Address of the freelancer."
        },
        "returns": {
          "_0": "The number of ratings as an integer (0 if no ratings present)."
        }
      },
      "getServiceCount()": {
        "details": "Returns all listed services"
      },
      "hireFreelancer(uint256)": {
        "details": "Allows clients to hire a freelancer and escrow payment",
        "params": {
          "_serviceId": "ID of the service to hire"
        }
      },
      "offerService(string,uint256)": {
        "details": "Allows freelancers to list their services",
        "params": {
          "_price": "Service cost in wei",
          "_title": "Short service title"
        }
      },
      "rateService(uint256,uint8)": {
        "details": "Allows the client to rate a service (only if payment was released).",
        "params": {
          "_rating": "Service rating value (must be between 1 and 5).",
          "_serviceId": "ID of the service to rate."
        }
      },
      "releasePayment(uint256)": {
        "details": "Allows client to release payment to freelancer after work completion",
        "params": {
          "_serviceId": "ID of the service"
        }
      }
    },
    "version": 1
  },
  "userdoc": {
    "kind": "user",
    "methods": {},
    "version": 1
  }
}