{
  "contractName": "FreelanceMarketplace",
  "abi": [
    {
      "anonymous": false,
      "inputs": [
        {
          "indexed": true,
          "internalType": "uint256",
          "name": "serviceId",
          "type": "uint256"
        },
        {
          "indexed": true,
          "internalType": "address",
          "name": "client",
          "type": "address"
        },
        {
          "indexed": false,
          "internalType": "uint256",
          "name": "amount",
          "type": "uint256"
        }
      ],
      "name": "ClientRefunded",
      "type": "event"
    },
    {
      "anonymous": false,
      "inputs": [
        {
          "indexed": true,
          "internalType": "uint256",
          "name": "serviceId",
          "type": "uint256"
        },
        {
          "indexed": true,
          "internalType": "address",
          "name": "client",
          "type": "address"
        }
      ],
      "name": "FreelancerHired",
      "type": "event"
    },
    {
      "anonymous": false,
      "inputs": [
        {
          "indexed": true,
          "internalType": "uint256",
          "name": "serviceId",
          "type": "uint256"
        },
        {
          "indexed": true,
          "internalType": "address",
          "name": "freelancer",
          "type": "address"
        },
        {
          "indexed": false,
          "internalType": "uint256",
          "name": "amount",
          "type": "uint256"
        }
      ],
      "name": "PaymentReleased",
      "type": "event"
    },
    {
      "anonymous": false,
      "inputs": [
        {
          "indexed": true,
          "internalType": "uint256",
          "name": "serviceId",
          "type": "uint256"
        },
        {
          "indexed": true,
          "internalType": "address",
          "name": "freelancer",
          "type": "address"
        },
        {
          "indexed": false,
          "internalType": "string",
          "name": "title",
          "type": "string"
        },
        {
          "indexed": false,
          "internalType": "uint256",
          "name": "price",
          "type": "uint256"
        }
      ],
      "name": "ServiceOffered",
      "type": "event"
    },
    {
      "anonymous": false,
      "inputs": [
        {
          "indexed": true,
          "internalType": "uint256",
          "name": "serviceId",
          "type": "uint256"
        },
        {
          "indexed": true,
          "internalType": "address",
          "name": "client",
          "type": "address"
        },
        {
          "indexed": false,
          "internalType": "uint8",
          "name": "rating",
          "type": "uint8"
        }
      ],
      "name": "ServiceRated",
      "type": "event"
    },
    {
      "inputs": [
        {
          "internalType": "uint256",
          "name": "",
          "type": "uint256"
        }
      ],
      "name": "escrowedFunds",
      "outputs": [
        {
          "internalType": "uint256",
          "name": "",
          "type": "uint256"
        }
      ],
      "stateMutability": "view",
      "type": "function",
      "constant": true
    },
    {
      "inputs": [
        {
          "internalType": "address",
          "name": "",
          "type": "address"
        }
      ],
      "name": "freelancerRatings",
      "outputs": [
        {
          "internalType": "uint256",
          "name": "total",
          "type": "uint256"
        },
        {
          "internalType": "uint256",
          "name": "count",
          "type": "uint256"
        }
      ],
      "stateMutability": "view",
      "type": "function",
      "constant": true
    },
    {
      "inputs": [
        {
          "internalType": "uint256",
          "name": "",
          "type": "uint256"
        }
      ],
      "name": "services",
      "outputs": [
        {
          "internalType": "uint256",
          "name": "id",
          "type": "uint256"
        },
        {
          "internalType": "address",
          "name": "freelancer",
          "type": "address"
        },
        {
          "internalType": "address",
          "name": "client",
          "type": "address"
        },
        {
          "internalType": "string",
          "name": "title",
          "type": "string"
        },
        {
          "internalType": "uint256",
          "name": "price",
          "type": "uint256"
        },
        {
          "internalType": "bool",
          "name": "isActive",
          "type": "bool"
        },
        {
          "internalType": "bool",
          "name": "isPaid",
          "type": "bool"
        },
        {
          "internalType": "uint8",
          "name": "rating",
          "type": "uint8"
        }
      ],
      "stateMutability": "view",
      "type": "function",
      "constant": true
    },
    {
      "inputs": [
        {
          "internalType": "string",
          "name": "_title",
          "type": "string"
        },
        {
          "internalType": "uint256",
          "name": "_price",
          "type": "uint256"
        }
      ],
      "name": "offerService",
      "outputs": [
        {
          "internalType": "uint256",
          "name": "",
          "type": "uint256"
        }
      ],
      "stateMutability": "nonpayable",
      "type": "function"
    },
    {
      "inputs": [
        {
          "internalType": "uint256",
          "name": "_serviceId",
          "type": "uint256"
        }
      ],
      "name": "hireFreelancer",
      "outputs": [],
      "stateMutability": "payable",
      "type": "function",
      "payable": true
    },
    {
      "inputs": [
        {
          "internalType": "uint256",
          "name": "_serviceId",
          "type": "uint256"
        }
      ],
      "name": "releasePayment",
      "outputs": [],
      "stateMutability": "nonpayable",
      "type": "function"
    },
    {
      "inputs": [
        {
          "internalType": "uint256",
          "name": "_serviceId",
          "type": "uint256"
        }
      ],
      "name": "refundClient",
      "outputs": [],
      "stateMutability": "nonpayable",
      "type": "function"
    },
    {
      "inputs": [
        {
          "internalType": "uint256",
          "name": "_serviceId",
          "type": "uint256"
        },
        {
          "internalType": "uint8",
          "name": "_rating",
          "type": "uint8"
        }
      ],
      "name": "rateService",
      "outputs": [],
      "stateMutability": "nonpayable",
      "type": "function"
    },
    {
      "inputs": [
        {
          "internalType": "address",
          "name": "_freelancer",
          "type": "address"
        }
      ],
      "name": "getAverageRating",
      "outputs": [
        {
          "internalType": "uint256",
          "name": "",
          "type": "uint256"
        }
      ],
      "stateMutability": "view",
      "type": "function",
      "constant": true
    },
    {
      "inputs": [],
      "name": "getServiceCount",
      "outputs": [
        {
          "internalType": "uint256",
          "name": "",
          "type": "uint256"
        }
      ],
      "stateMutability": "view",
      "type": "function",
      "constant": true
    }
  ],
  "bytecode": "0x608060405234801561001057600080fd5b5060016000556111cf806100256000396000f3fe6080604052600436106100915760003560e01c806388685cd91161005957806388685cd914610165578063b489e14714610185578063c22c4f43146101b2578063c8b67522146101e6578063ddd710da1461020657600080fd5b80631a47acab1461009657806327db21e1146100b85780633672404e1461010657806343eed51c146101255780636087bbd714610145575b600080fd5b3480156100a257600080fd5b506100b66100b1366004610de3565b610219565b005b3480156100c457600080fd5b506100ec6100d3366004610e19565b6004602052600090815260409020805460019091015482565b604080519283526020830191909152015b60405180910390f35b34801561011257600080fd5b506001545b6040519081526020016100fd565b34801561013157600080fd5b506100b6610140366004610e42565b61046e565b34801561015157600080fd5b50610117610160366004610e71565b610693565b34801561017157600080fd5b506100b6610180366004610e42565b610885565b34801561019157600080fd5b506101176101a0366004610e42565b60036020526000908152604090205481565b3480156101be57600080fd5b506101d26101cd366004610e42565b610a9c565b6040516100fd989796959493929190610f6c565b3480156101f257600080fd5b50610117610201366004610e19565b610b7c565b6100b6610214366004610e42565b610bd5565b610221610d8a565b6000828152600260208190526040909120908101546001600160a01b031633146102925760405162461bcd60e51b815260206004820181905260248201527f4f6e6c7920636c69656e742063616e207261746520746865207365727669636560448201526064015b60405180910390fd5b6005810154610100900460ff166102eb5760405162461bcd60e51b815260206004820181905260248201527f53657276696365207061796d656e74206e6f742072656c6561736564207965746044820152606401610289565b60018260ff1610158015610303575060058260ff1611155b61034f5760405162461bcd60e51b815260206004820152601e60248201527f526174696e67206d757374206265206265747765656e203120616e64203500006044820152606401610289565b600581015462010000900460ff16156103a25760405162461bcd60e51b815260206004820152601560248201527414d95c9d9a58d948185b1c9958591e481c985d1959605a1b6044820152606401610289565b60058101805462ff000019166201000060ff85169081029190911790915560018201546001600160a01b0316600090815260046020526040812080549091906103ec908490610fe0565b90915550506001818101546001600160a01b0316600090815260046020526040812082018054909190610420908490610fe0565b909155505060405160ff83168152339084907f4cfadb3896f7fc5de5413d3b196cab452ba6d0b2fe92b8a9b6c27a576eba8d379060200160405180910390a35061046a6001600055565b5050565b610476610d8a565b6000818152600260208190526040909120908101546001600160a01b031633146104e25760405162461bcd60e51b815260206004820152601e60248201527f4f6e6c7920636c69656e742063616e207265717565737420726566756e6400006044820152606401610289565b6005810154610100900460ff16156105375760405162461bcd60e51b815260206004820152601860248201527714185e5b595b9d08185b1c9958591e481c995b19585cd95960421b6044820152606401610289565b6000828152600360205260409020546105875760405162461bcd60e51b81526020600482015260126024820152714e6f2066756e647320696e20657363726f7760701b6044820152606401610289565b60008281526003602052604080822080549083905560058401805460ff19169055600284015491519092916001600160a01b03169083908381818185875af1925050503d80600081146105f6576040519150601f19603f3d011682016040523d82523d6000602084013e6105fb565b606091505b505090508061063c5760405162461bcd60e51b815260206004820152600d60248201526c1499599d5b990819985a5b1959609a1b6044820152606401610289565b60028301546040518381526001600160a01b039091169085907f710864ae79ae7195dbcaa0f79eef4a8f5b490696c2d588a27f4d69ce60ac01fc906020015b60405180910390a35050506106906001600055565b50565b6000808351116106dd5760405162461bcd60e51b81526020600482015260156024820152745469746c652063616e6e6f7420626520656d70747960581b6044820152606401610289565b6000821161072d5760405162461bcd60e51b815260206004820152601c60248201527f5072696365206d7573742062652067726561746572207468616e2030000000006044820152606401610289565b6001805460408051610100810182528281523360208083019182526000838501818152606085018b8152608086018b905260a0860189905260c0860183905260e086018390528783526002938490529590912084518155925196830180546001600160a01b039889166001600160a01b031991821617909155905191830180549290971691161790945590519192909160038201906107cc908261107c565b506080820151600482015560a08201516005909101805460c084015160e09094015160ff16620100000262ff0000199415156101000261ff00199415159490941661ffff19909216919091179290921792909216179055600180549060006108338361113c565b9190505550336001600160a01b0316817f11c5fff3b5aeb9b7782b5c4b7b3260a1272d2bcd72f9c401e68d23465a260f8a8686604051610874929190611155565b60405180910390a390505b92915050565b61088d610d8a565b6000818152600260208190526040909120908101546001600160a01b031633146108f95760405162461bcd60e51b815260206004820152601f60248201527f4f6e6c7920636c69656e742063616e2072656c65617365207061796d656e74006044820152606401610289565b6005810154610100900460ff161561094e5760405162461bcd60e51b815260206004820152601860248201527714185e5b595b9d08185b1c9958591e481c995b19585cd95960421b6044820152606401610289565b60008281526003602052604090205461099e5760405162461bcd60e51b81526020600482015260126024820152714e6f2066756e647320696e20657363726f7760701b6044820152606401610289565b60008281526003602052604080822080549083905560058401805461ffff1916610100179055600184015491519092916001600160a01b03169083908381818185875af1925050503d8060008114610a12576040519150601f19603f3d011682016040523d82523d6000602084013e610a17565b606091505b5050905080610a595760405162461bcd60e51b815260206004820152600e60248201526d14185e5b595b9d0819985a5b195960921b6044820152606401610289565b60018301546040518381526001600160a01b039091169085907f21d71db5be59bb9fa133895586b7404307dd33fb93b16db09dc6f1d9d7d231b09060200161067b565b6002602081905260009182526040909120805460018201549282015460038301805492946001600160a01b0390811694921692610ad890610ff3565b80601f0160208091040260200160405190810160405280929190818152602001828054610b0490610ff3565b8015610b515780601f10610b2657610100808354040283529160200191610b51565b820191906000526020600020905b815481529060010190602001808311610b3457829003601f168201915b50505050600483015460059093015491929160ff808216925061010082048116916201000090041688565b6001600160a01b038116600090815260046020908152604080832081518083019092528054825260010154918101829052908203610bbd5750600092915050565b60208101518151610bce9190611177565b9392505050565b610bdd610d8a565b600081815260026020526040902060018101546001600160a01b0316610c3e5760405162461bcd60e51b815260206004820152601660248201527514d95c9d9a58d948191bd95cc81b9bdd08195e1a5cdd60521b6044820152606401610289565b600581015460ff16610c8a5760405162461bcd60e51b815260206004820152601560248201527453657276696365206973206e6f742061637469766560581b6044820152606401610289565b60028101546001600160a01b031615610cdd5760405162461bcd60e51b815260206004820152601560248201527414d95c9d9a58d948185b1c9958591e481a1a5c9959605a1b6044820152606401610289565b80600401543414610d305760405162461bcd60e51b815260206004820181905260248201527f5061796d656e74206d757374206d6174636820736572766963652070726963656044820152606401610289565b6002810180546001600160a01b031916339081179091556000838152600360205260408082203490555184917f275ab44b0c246a31e80d4be1133500786fb735dd528a1c8dbd0245896c6b142191a3506106906001600055565b600260005403610ddc5760405162461bcd60e51b815260206004820152601f60248201527f5265656e7472616e637947756172643a207265656e7472616e742063616c6c006044820152606401610289565b6002600055565b60008060408385031215610df657600080fd5b82359150602083013560ff81168114610e0e57600080fd5b809150509250929050565b600060208284031215610e2b57600080fd5b81356001600160a01b0381168114610bce57600080fd5b600060208284031215610e5457600080fd5b5035919050565b634e487b7160e01b600052604160045260246000fd5b60008060408385031215610e8457600080fd5b823567ffffffffffffffff80821115610e9c57600080fd5b818501915085601f830112610eb057600080fd5b813581811115610ec257610ec2610e5b565b604051601f8201601f19908116603f01168101908382118183101715610eea57610eea610e5b565b81604052828152886020848701011115610f0357600080fd5b826020860160208301376000602093820184015298969091013596505050505050565b6000815180845260005b81811015610f4c57602081850181015186830182015201610f30565b506000602082860101526020601f19601f83011685010191505092915050565b8881526001600160a01b0388811660208301528716604082015261010060608201819052600090610f9f83820189610f26565b6080840197909752505092151560a084015290151560c083015260ff1660e090910152949350505050565b634e487b7160e01b600052601160045260246000fd5b8082018082111561087f5761087f610fca565b600181811c9082168061100757607f821691505b60208210810361102757634e487b7160e01b600052602260045260246000fd5b50919050565b601f82111561107757600081815260208120601f850160051c810160208610156110545750805b601f850160051c820191505b8181101561107357828155600101611060565b5050505b505050565b815167ffffffffffffffff81111561109657611096610e5b565b6110aa816110a48454610ff3565b8461102d565b602080601f8311600181146110df57600084156110c75750858301515b600019600386901b1c1916600185901b178555611073565b600085815260208120601f198616915b8281101561110e578886015182559484019460019091019084016110ef565b508582101561112c5787850151600019600388901b60f8161c191681555b5050505050600190811b01905550565b60006001820161114e5761114e610fca565b5060010190565b6040815260006111686040830185610f26565b90508260208301529392505050565b60008261119457634e487b7160e01b600052601260045260246000fd5b50049056fea2646970667358221220a9c40fc9d18bcf3fe0dff75645cb1f60437f4801d7a6b19138d42e0926fc5bf764736f6c63430008110033",
  "immutableReferences": {},
  "source": "// SPDX-License-Identifier: MIT\npragma solidity ^0.8.0;\n\nimport \"@openzeppelin/contracts/security/ReentrancyGuard.sol\";\n\ncontract FreelanceMarketplace is ReentrancyGuard {\n    // Service struct to store service details\n    struct Service {\n        uint256 id;\n        address freelancer;\n        address client;\n        string title;\n        uint256 price;\n        bool isActive;\n        bool isPaid;\n        uint8 rating; // Rating from the client (0 = not rated, 1-5 valid ratings)\n    }\n\n    // Struct to aggregate freelancer ratings\n    struct FreelancerRating {\n        uint256 total; // Sum of rating values\n        uint256 count; // Number of ratings received\n    }\n\n    // Counter for service IDs\n    uint256 private serviceCounter;\n    \n    // Mapping from service ID to Service struct\n    mapping(uint256 => Service) public services;\n    \n    // Mapping to track escrowed funds for each service\n    mapping(uint256 => uint256) public escrowedFunds;\n\n    // Mapping from freelancer address to their aggregated rating data\n    mapping(address => FreelancerRating) public freelancerRatings;\n    \n    // Events\n    event ServiceOffered(uint256 indexed serviceId, address indexed freelancer, string title, uint256 price);\n    event FreelancerHired(uint256 indexed serviceId, address indexed client);\n    event PaymentReleased(uint256 indexed serviceId, address indexed freelancer, uint256 amount);\n    event ClientRefunded(uint256 indexed serviceId, address indexed client, uint256 amount);\n    event ServiceRated(uint256 indexed serviceId, address indexed client, uint8 rating);\n    \n    /**\n     * @dev Allows freelancers to list their services\n     * @param _title Short service title\n     * @param _price Service cost in wei\n     */\n    function offerService(string memory _title, uint256 _price) external returns (uint256) {\n        require(bytes(_title).length > 0, \"Title cannot be empty\");\n        require(_price > 0, \"Price must be greater than 0\");\n        \n        uint256 serviceId = serviceCounter;\n        \n        services[serviceId] = Service({\n            id: serviceId,\n            freelancer: msg.sender,\n            client: address(0),\n            title: _title,\n            price: _price,\n            isActive: true,\n            isPaid: false,\n            rating: 0\n        });\n        \n        serviceCounter++;\n        \n        emit ServiceOffered(serviceId, msg.sender, _title, _price);\n        return serviceId;\n    }\n    \n    /**\n     * @dev Allows clients to hire a freelancer and escrow payment\n     * @param _serviceId ID of the service to hire\n     */\n    function hireFreelancer(uint256 _serviceId) external payable nonReentrant {\n        Service storage service = services[_serviceId];\n        \n        require(service.freelancer != address(0), \"Service does not exist\");\n        require(service.isActive, \"Service is not active\");\n        require(service.client == address(0), \"Service already hired\");\n        require(msg.value == service.price, \"Payment must match service price\");\n        \n        service.client = msg.sender;\n        escrowedFunds[_serviceId] = msg.value;\n        \n        emit FreelancerHired(_serviceId, msg.sender);\n    }\n    \n    /**\n     * @dev Allows client to release payment to freelancer after work completion\n     * @param _serviceId ID of the service\n     */\n    function releasePayment(uint256 _serviceId) external nonReentrant {\n        Service storage service = services[_serviceId];\n        \n        require(service.client == msg.sender, \"Only client can release payment\");\n        require(!service.isPaid, \"Payment already released\");\n        require(escrowedFunds[_serviceId] > 0, \"No funds in escrow\");\n        // Should there be a 'require(service.price == escrowedFunds[_serviceID], \"Escrowed funds do not match price\"); ?'       \n        uint256 amount = escrowedFunds[_serviceId];\n        //Shouldn't this be below be after the payment failed line? [APPARENTLY NOT, REENTRANCY ATTACK]\n        escrowedFunds[_serviceId] = 0;\n        service.isPaid = true;\n        service.isActive = false;\n        \n        (bool success, ) = payable(service.freelancer).call{value: amount}(\"\");\n        require(success, \"Payment failed\");\n        \n        emit PaymentReleased(_serviceId, service.freelancer, amount);\n    }\n    \n    /**\n     * @dev Allows client to request refund (could be extended with deadline logic)\n     * @param _serviceId ID of the service\n     */\n    function refundClient(uint256 _serviceId) external nonReentrant {\n        Service storage service = services[_serviceId];\n        \n        require(service.client == msg.sender, \"Only client can request refund\");\n        require(!service.isPaid, \"Payment already released\");\n        require(escrowedFunds[_serviceId] > 0, \"No funds in escrow\");\n        \n        uint256 amount = escrowedFunds[_serviceId];\n        //Shouldn't this be below be after the payment failed line? [APPARENTLY NOT, REENTRANCY ATTACK]\n        escrowedFunds[_serviceId] = 0;\n        service.isActive = false;\n        \n        (bool success, ) = payable(service.client).call{value: amount}(\"\");\n        require(success, \"Refund failed\");\n        \n        emit ClientRefunded(_serviceId, service.client, amount);\n    }\n    \n    /**\n     * @dev Allows the client to rate a service (only if payment was released).\n     * @param _serviceId ID of the service to rate.\n     * @param _rating Service rating value (must be between 1 and 5).\n     */\n    function rateService(uint256 _serviceId, uint8 _rating) external nonReentrant {\n        Service storage service = services[_serviceId];\n\n        require(service.client == msg.sender, \"Only client can rate the service\");\n        require(service.isPaid, \"Service payment not released yet\");\n        require(_rating >= 1 && _rating <= 5, \"Rating must be between 1 and 5\");\n        require(service.rating == 0, \"Service already rated\");\n        \n        // Update the service rating\n        service.rating = _rating;\n        \n        // Update the freelancer's aggregated ratings\n        freelancerRatings[service.freelancer].total += _rating;\n        freelancerRatings[service.freelancer].count += 1;\n        \n        emit ServiceRated(_serviceId, msg.sender, _rating);\n    }\n\n    /**\n     * @dev Returns the average rating of a freelancer.\n     * @param _freelancer Address of the freelancer.\n     * @return The average rating as an integer (0 if no ratings present).\n     *\n     * Note: This returns an integer average with division truncation. For more precise ratings,\n     * additional logic could be implemented to return a fixed-point number.\n     */\n    function getAverageRating(address _freelancer) external view returns (uint256) {\n        FreelancerRating memory rating = freelancerRatings[_freelancer];\n        if (rating.count == 0) {\n            return 0;\n        }\n        return rating.total / rating.count;\n    }\n\n    /**\n     * @dev Returns all listed services\n     */\n    function getServiceCount() external view returns (uint256) {\n        return serviceCounter;\n    }\n}\n",
  "sourcePath": "C:\\Users\\magic\\OneDrive\\Desktop\\Freelance_Marketplace\\contracts\\FreelanceMarketplace.sol",
  "compiler": {
    "name": "solc",
    "version": "0.8.17+commit.8df45f5f.Emscripten.clang"
  },
  "schemaVersion": "3.4.16",
  "updatedAt": "2025-04-23T14:05:09.770Z",
  "networkType": "ethereum",
  "devdoc": {
    "kind": "dev",
    "methods": {
      "getAverageRating(address)": {
        "details": "Returns the average rating of a freelancer.",
        "params": {
          "_freelancer": "Address of the freelancer."
        },
        "returns": {
          "_0": "The average rating as an integer (0 if no ratings present). Note: This returns an integer average with division truncation. For more precise ratings, additional logic could be implemented to return a fixed-point number."
        }
      },
      "getServiceCount()": {
        "details": "Returns all listed services"
      },
      "hireFreelancer(uint256)": {
        "details": "Allows clients to hire a freelancer and escrow payment",
        "params": {
          "_serviceId": "ID of the service to hire"
        }
      },
      "offerService(string,uint256)": {
        "details": "Allows freelancers to list their services",
        "params": {
          "_price": "Service cost in wei",
          "_title": "Short service title"
        }
      },
      "rateService(uint256,uint8)": {
        "details": "Allows the client to rate a service (only if payment was released).",
        "params": {
          "_rating": "Service rating value (must be between 1 and 5).",
          "_serviceId": "ID of the service to rate."
        }
      },
      "refundClient(uint256)": {
        "details": "Allows client to request refund (could be extended with deadline logic)",
        "params": {
          "_serviceId": "ID of the service"
        }
      },
      "releasePayment(uint256)": {
        "details": "Allows client to release payment to freelancer after work completion",
        "params": {
          "_serviceId": "ID of the service"
        }
      }
    },
    "version": 1
  },
  "userdoc": {
    "kind": "user",
    "methods": {},
    "version": 1
  }
}